:02000002B0004C
:1040000000400B0060900B00000006000C00050251
:084010000401A60F00000000EE
:0440180060800B00B9
:10401C0009480A49884208B505D0094A824202D0AB
:10402C00121A03F05BFF0748074A0021121A03F02B
:10403C0063FF014808BD00BF08E10320A08B0B0003
:10404C00A0E50320A0E50320EDE7032070B5074EA3
:10405C00074C02F0A9FAA41BA4080025AC4200D11D
:10406C0070BD56F8043B98470135F7E7488B0B00B9
:10407C006C8B0B0000F054B808B500F003F9BDE8E8
:10408C00084002F049BA01F065BF01F063BF01F0CE
:10409C0069BF000008B5034A03490C2001F0AEFECD
:1040AC00FEE700BFC95A0B0074800B000078B0FA11
:1040BC0080F0400970470123037070470EB403B5BC
:1040CC0003AB002153F8042B019302F0B6F902B0B4
:1040DC005DF804EB03B0704738B584690A4B036094
:1040EC0005467CB16368013B63605BB9236820467D
:1040FC009B689847A368013BA3601BB923682046C3
:10410C00DB689847284638BD00890B0010B504467B
:10411C00FFF7E2FF20461C21FFF7B9FF204610BD38
:10412C0030B595B002F062FB4FF4165102F04EFB25
:10413C0003F012F902F01CFC03F00EF9682102F0F6
:10414C004DFC03F009F903686B219B68984703F059
:10415C0003F9036800219B68984703F0FDF80121DF
:10416C0002F03FFC3C223848022101F0CBF9374BDE
:10417C003548197801F04EFC334801F053F94FF4EF
:10418C007A7002F09DF93048012101F039FC0121CF
:10419C002D4801F03AFC2C4801F044F92A4801F072
:1041AC00E5F82B48052100F073F90121052003F0F7
:1041BC0019F802F01BFB2749FFF780FF002001F0E4
:1041CC0095FC43F698250446002001F08FFC001B5B
:1041DC0061F10001A84271F1000307D202F006FB65
:1041EC0002F0F8FA10B901F0A5FEEDE702F0FEFAC4
:1041FC00194C02F0EFFA00231A461946606801F0D8
:10420C0051FE3822002106A803F076FE4C230193C0
:10421C00124B02930A220023CDE90323194601AA6B
:10422C006068059301F05EFE002360681A4619462B
:10423C0001F018FE00226068114601F01BFE0028F8
:10424C00F8D115B030BD00BF3CE6032020E10320BF
:10425C0074E6032061810B0018E703206D810B00CD
:10426C0008B5064B0520197802F0CDFF02F0BEFA16
:10427C0003490522FFF722FF08BD00BFA0E603207B
:10428C0078810B00F0B5384887B0762100F08BFEB2
:10429C00364B187028B902F0A9FA35497622FFF787
:1042AC000DFF3148334E344D344C00F0D9FC2E48C0
:1042BC0086ED000A00F04EFD2B4885ED000A00F05B
:1042CC00FFFC84ED000A02F091FA0746306803F017
:1042DC00DFFA02460B462868CDE9042303F0D8FA2E
:1042EC00CDE90201206803F0D3FADDE90423CDE91E
:1042FC00000123493846FFF7E1FE306803F0C8FAA5
:10430C0002460B462868CDE9042303F0C1FACDE937
:10431C000201206803F0BCFADDE90423CDE90001B9
:10432C0017491848FFF7CAFE164801F07BF84FF4FE
:10433C007A7002F0C5F8134801F074F8FFF790FF9B
:10434C0041F2883002F0BCF80F49104800F072F9C5
:10435C004FF4FA7002F0B4F802F048FA0C49FFF787
:10436C00ADFE07B0F0BD00BFF8E50320A8E60320C2
:10437C008D810B00ACE60320A4E6032070E603203D
:10438C00B6810B003CE6032000F8FFFF74E6032027
:10439C00DF810B0013B51D491D4801F0D9FF1D4AE3
:1043AC001D4B12681A601D4A1D4812685A601D4A3E
:1043BC0012689A601C4A1268DA601C4A12681A6108
:1043CC001B4A12685A611B4A12689A6102F0C8FDB6
:1043DC00194802F0C5FD062405230822CDE9004347
:1043EC004FF400610723154800F030F803211448FE
:1043FC0000F0A6FF134800F08FF9134B0021204664
:10440C001C6002B0BDE8104002F0ECBEF6810B005F
:10441C0060E60320D8E50320BCE5032014E103206B
:10442C00A0E503201CE103200CE1032008E103209C
:10443C0010E1032018E10320DCE5032074E60320DF
:10444C003CE60320F8E50320B0E6032038B5C0E9CC
:10445C000523049BC3610446059B0362002505618B
:10446C0005608562816090B2012102F0BBFE208B59
:10447C00012102F0B7FEA08B012102F0B3FE208CCB
:10448C00012102F0AFFE04236562E360204638BDD3
:10449C008268034B93FBF2F393FBF1F1416070479D
:1044AC000087930338B5C368022B04460D460DD123
:1044BC0003290BD8DFE801F00213151B0021A08A99
:1044CC0002F0A1FE0121208B02F09DFEE368042B7B
:1044DC001FD1032D1DD8DFE805F00C2A303E012139
:1044EC00EDE70121A08A02F08EFE0021EBE700210E
:1044FC00F8E70121A08A02F086FE0021208B02F051
:10450C0082FE0121A08B02F07EFE0021208C02F0A5
:10451C007AFEE368052B40F08C80092D00F289802F
:10452C00DFE805F01F2937495F6167717F8500213E
:10453C00A08A02F068FE0121E0E70021A08A02F0C7
:10454C0062FE0121208B02F05EFE0021A08B02F0A6
:10455C005AFE0121DAE70121A08A02F054FE002163
:10456C00F0E70021A08A02F04EFE0121208B02F020
:10457C004AFE012108E0A08A002102F044FE01213C
:10458C00208B02F040FE0021A08B02F03CFE0021AB
:10459C000CE0A08A002102F036FE208B012102F0F3
:1045AC0032FE0021A08B02F02EFE0121208C02F0A5
:1045BC002AFE012110E00021A08A02F024FE012134
:1045CC00208B02F020FE0021A08B02F01CFE0121AA
:1045DC00208C02F018FE0021A08CBDE8384002F0BF
:1045EC0012BE0121E8E70121A08A02F00CFE002195
:1045FC00E6E7A08A012102F006FE0021208B02F0E2
:10460C0002FE0121E0E7A08A012102F0FCFD208BD3
:10461C00002102F0F8FD0121A08B02F0F4FD002135
:10462C00D6E70121A08A02F0EEFD00219EE70021D1
:10463C00F8E738BDF8B5002981EAE1750446A5EB29
:10464C00E17524DD0123236000270A2685B301F0E0
:10465C003DFAA36A6268C31A9342F7D322682369AE
:10466C00A062012A16D1A2680133934208BF3B46CF
:10467C002361D4E90331052B05F1FF3510D191FBF2
:10468C00F6F306FB13112046FFF70CFFDEE7DBD039
:10469C000023D8E70BB9A36823612369013BE7E743
:1046AC004B4203F0030301F0030158BF5942EAE700
:1046BC00F8BD704710B510210446FFF7E8FC204602
:1046CC0010BD000073B5044608462279A36832B1C8
:1046DC00A3B90B4902B0BDE8704001F07DBE094A98
:1046EC00267B094D0949647B012E18BF2946CDE96B
:1046FC0000140749FFF7E2FC02B070BD054AEFE772
:10470C0008820B00F6810B0004820B0000820B0068
:10471C001E820B00F7810B004FF0FF3303617047D3
:10472C0013B50B4C2178BFF35B8F11F001010BD14A
:10473C0020460191FFF7BAFC019928B1054801F018
:10474C0085FC2046FFF7B7FC024802B010BD00BF45
:10475C00B8E60320BCE6032008B5FFF7E1FFBDE88F
:10476C00084001F0B9BC07B50190FFF7D9FF0199DA
:10477C0003B05DF804EB01F0C9BC2DE9F04190F9F0
:10478C001330013305460F4606D1FFF7C9FF3946F2
:10479C00BDE8F04101F080BD002407264FF0010870
:1047AC0095F91300002180B202F02DFD95F911004E
:1047BC0008FA06F1394080B202F025FD95F9130094
:1047CC00012180B202F01FFD95F91200640080B245
:1047DC00E4B202F031FD08B144F00104013EDFD235
:1047EC002046BDE8F08100007FB590F91030013310
:1047FC0004460E46154613D10179006802F0EAF81A
:10480C002068036831469B689847206803682946EE
:10481C009B689847206804B0BDE8704002F0E5B88A
:10482C0090F9133001330CD1164B009300238DF803
:10483C000430154B029368460123ADF80C30FFF79A
:10484C0092FF94F91000002180B202F0DCFC06F01B
:10485C007F012046FFF791FF29462046FFF78DFF89
:10486C0094F91000012180B202F0CDFC94F91330C0
:10487C00013304D104B0BDE87040FFF76DBF04B044
:10488C0070BD00BF44820B0020A10700F8B5DB000F
:10489C0002F0070203F03803134343EA81139DF837
:1048AC00186080F83C3090F840309DF81C509DF812
:1048BC00207066F3471380F84030ED0090F83830E4
:1048CC0007F0070705F0380523F03F033D43044686
:1048DC001D4380F8385006F00702F221FFF784FFE1
:1048EC0094F83820C2F3C20302F007019B0043EA9C
:1048FC00411343EAD2122046F521FFF775FF94F8D5
:10490C003C20C2F3C20302F007019B0043EA4113AF
:10491C0043EA92122046F421BDE8F840FFF764BF49
:10492C0030B590F91030013385B004460D4618D1DE
:10493C000179006802F04EF82068036829469B68EC
:10494C009847206802F051F821792068012202F082
:10495C003EF8206803685B699847C5B2284605B0E5
:10496C0030BD90F9133001330CD1154B009300235B
:10497C008DF80430134B029368460123ADF80C30CC
:10498C00FFF7F1FE94F91000002180B202F03BFC1D
:10499C0045F080012046FFF7F0FE00212046FFF78E
:1049AC00ECFE054694F91000012180B202F02BFCBC
:1049BC0094F913300133D1D1FFF7CEFECEE700BF0F
:1049CC0044820B0020A1070008B5F321FFF7A8FFD4
:1049DC0000F0010008BD000030B590F91030013333
:1049EC0085B004460D461FD10179006801F0F2FF35
:1049FC002068036829469B689847206801F0F5FFFA
:104A0C0021792068022201F0E2FF206803685B69CB
:104A1C0098470546206803685B69984740EA05207B
:104A2C0085B2284605B030BD90F9133001330CD156
:104A3C00184B009300238DF80430174B02936846F3
:104A4C000123ADF80C30FFF78EFE94F91000002115
:104A5C0080B202F0D8FB45F080012046FFF78DFEB6
:104A6C0000212046FFF789FE002105462046FFF76E
:104A7C0084FE40EA052085B294F91000012180B231
:104A8C0002F0C1FB94F913300133CAD1FFF764FE75
:104A9C00C7E700BF44820B0020A1070008B5FFF751
:104AAC009BFF40BA80B208BD38B588210446FFF799
:104ABC00F5FF8A21A0822046FFF7F0FF8C21E082CF
:104ACC002046FFF7EBFF8E2120832046FFF7E6FF01
:104ADC00902160832046FFF7E1FF9221A0832046BE
:104AEC00FFF7DCFF9421E0832046FFF7D7FF9621E8
:104AFC0020842046FFF7D2FF982160842046FFF7E0
:104B0C00CDFF9A21A0842046FFF7C8FF9C21E084AA
:104B1C002046FFF7C3FF9E2120852046FFF7BEFFEE
:104B2C00A12160852046FFF7FBFEE12184F82C00D3
:104B3C002046FFF7B3FFE321E0852046FFF7F0FEA8
:104B4C00E42184F830002046FFF7EAFEE521054613
:104B5C002046FFF7E5FE00F00F0343EA05106086E0
:104B6C00E6212046FFF7DCFEE52105462046FFF74F
:104B7C00D7FEC0F3071343EA0510A086E7212046B1
:104B8C00FFF7CEFE84F8360038BD000030B590F942
:104B9C001030013385B004460D4623D101790068ED
:104BAC0001F018FF2068036829469B689847206825
:104BBC0001F01BFF21792068032201F008FF206817
:104BCC0003685B6998470502206803685B6998472E
:104BDC0028430502206803685B699847054328460B
:104BEC0005B030BD90F9133001330CD11A4B009342
:104BFC0000238DF80430194B029368460123ADF85D
:104C0C000C30FFF7B0FD94F91000002180B202F0D7
:104C1C00FAFA45F080012046FFF7AFFD002120464F
:104C2C00FFF7ABFD002105022046FFF7A6FD284348
:104C3C00050200212046FFF7A0FD054394F9100062
:104C4C00012180B202F0DFFA94F913300133C6D19E
:104C5C00FFF782FDC3E700BF44820B0020A10700D1
:104C6C0010B5FA210446FFF791FFB0F5000F1FD0E5
:104C7C00A18A9FED117A4B00C1EB2022C3EBE0110E
:104C8C00B4F91630594302FB02F3B4F918201B1384
:104C9C0053439B1303EBE123E36003EB8303803368
:104CAC001B1207EE903AF8EEE77A87EE870A10BDF2
:104CBC009FED020AFBE700BF0000C8420000C07F66
:104CCC0038B50446FFF7CCFFFD212046FFF784FEE4
:104CDC00B0F5004F38D0E168B4F93420A1F5963521
:104CEC00B4F932100905C1EB803305FB123303F51F
:104CFC008043DA1394F8303094F936106B43DB129E
:104D0C006943891203F500434B439B12B4F92E10EF
:104D1C0003F500134B4303F500539B135343DA1372
:104D2C0094F82C105243D2114A43A3EB221323EADA
:104D3C00E373B3F1C85FA8BF4FF0C8531B1300EE69
:104D4C00103ABAEECB0A38BD9FED010AFBE700BF63
:104D5C000000C07F2DE9F8430546FFF781FFF721DE
:104D6C002846FFF713FFB0F5000F00F0B680E96896
:104D7C00B5F91C304FEAE17EB1F5FA314EF1FF3E48
:104D8C00DC1703FB0EF201FB0422A3FB01342244CB
:104D9C001203A1FB01781C0301FB0EF642EA13522D
:104DAC00B5F91E3008EB46084FEAE37C03FB08F626
:104DBC0007FB0C66A3FB073C66441B0A43EA06632D
:104DCC001B1942EB26226E8B02F50042A3FB063424
:104DDC0006FB0244E317621053EA64044FF0000C24
:104DEC007ED0B5F9244004FB08F64FEAE47907FBC2
:104DFC000966A4FB07473E44B5F922704FEAE778F1
:104E0C0007FB0EFE01FB08EEA7FB01717144490480
:104E1C0041EAD73100117F043F19C0F5801446EBED
:104E2C00010604F00040B5F920101CEB070740EA1E
:104E3C005400E407E41B06EBC10640F6354160EB79
:104E4C000606A4FB010401FB064102F087FEB5F93E
:104E5C002A20B5F928604FEA613C430B43EAC14371
:104E6C0002FB0CF7D41703FB0477A2FB03243C448E
:104E7C0002FB0CF703FB0477A2FB03231F44530E26
:104E8C0043EAC7131B184FEAE67206FB01F4864689
:104E9C0041EB676702FB0041A6FB0E06B5F9264005
:104EAC003144C00C40EA413018184FEAE47547EB26
:104EBC00E141000A2D0140EA016045EA1475240124
:104ECC00201845EB212102F00BFE9FED070A07EE9F
:104EDC00900A27EE800ABDE8F8839FED040AFAE7F2
:104EEC009FED030AF7E700BF0000803B0000C07F86
:104EFC000000000030B5044690F91000421C85B04B
:104F0C0019D1206801F034FDD0212046FFF708FDAF
:104F1C006028A06045D12046B622E021FFF764FC52
:104F2C004FF4967001F0CCFA2046FFF74DFD054684
:104F3C0028B36420F6E7012180B202F064F994F9F9
:104F4C001000012180B202F04DF994F91300431CBA
:104F5C0004D1FFF7E5FB01F083F8D5E7012180B21E
:104F6C0002F040F994F91100012180B202F03AF9F3
:104F7C0094F91200002180B202F034F9C4E7204603
:104F8C00FFF792FD052300931A4603212046CDE935
:104F9C000155FFF77BFC642001F092FA012005B06B
:104FAC0030BD0020FBE710B50171044602F0D4F9C6
:104FBC0020602046BDE81040FFF79CBFF0B5457E51
:104FCC00BDF81440022D69D0032D00F09980012DFD
:104FDC006CD10589D2432A4412B2002A5DDBB0F9A8
:104FEC000850954259DD0029BEBF5B181BB2002149
:104FFC00B0F90A00CD188542C4BF431A1BB2002B6E
:10500C004BDDC1F3C400DFF820C102EBC01211F07C
:10501C000701DBB20CEB02001AD0C1F10805404EBF
:10502C00EDB2AB42775D3FBFA5EB030EFF2646FA10
:10503C000EF637401CF80260012C0CBF3E43BE43F9
:10504C00AB420CF8026028D308390B44DBB2803039
:10505C00072B19D9012C4FF0FF3518BF0025EDB2E5
:10506C0000F180011A46083AD2B2072A01F8805C96
:10507C0001F18001F7D8A3F10802C2F3C402013296
:10508C0000EBC21003F007033BB1264AD25C037855
:10509C00012C0CBF134393430370F0BD4589D243DD
:1050AC002A44CD180189491B12B209B2002AF4DB3B
:1050BC00B0F90A509542F0DD0029BEBF5B181BB257
:1050CC000021B0F90870CE18BE42C4BF6B1A1BB2D7
:1050DC00002BE2DDD010802510FB05111248014495
:1050EC0002F0070001228240012CD2B20B440CD1F9
:1050FC008B42D2D011F8010B104301F8010CF7E7E9
:10510C00CD184189491B09B267E7D243D2B28B4211
:10511C00C3D011F8010B104001F8010CF7E700BFE8
:10512C002CE1032024E1032034E10320F0B5457E7B
:10513C00BDF81440022D34D0032D00F09B80012DBE
:10514C0037D1D5180289521B12B20029C0F29180B6
:10515C00B0F90A508D4240F38C80002ABEBF9B18D8
:10516C001BB20022B0F90870D618BE42C4BFAB1AED
:10517C001BB2002B7DDDC810802510FB0522454895
:10518C00024401F0070001218140012CC9B21344F3
:10519C0075D19A426DD012F8010B084302F8010C3C
:1051AC00F7E70589C9432944D5184289521B09B22E
:1051BC0012B200295DDBB0F908508D4259DD002A8E
:1051CC00BEBF9B181BB20022B0F90A00D51885424D
:1051DC00C4BF831A1BB2002B4BDDC2F3C400DFF833
:1051EC00B4C001EBC01112F00702DBB20CEB0100F2
:1051FC001AD0C2F10805284EEDB2AB42775D3FBF25
:10520C00A5EB030EFF2646FA0EF637401CF801609C
:10521C00012C0CBF3E43BE43AB420CF8016028D3BB
:10522C00083A1344DBB28030072B19D9012C4FF00C
:10523C00FF3518BF0025EDB200F180011A46083A7F
:10524C00D2B2072A01F8805C01F18001F7D8A3F1F2
:10525C000802C2F3C402013200EBC21003F00703D0
:10526C003BB10E4AD25C0378012C0CBF1343934321
:10527C000370F0BD4589C943294409B265E7C943A8
:10528C00C9B29A42F5D012F8010B084002F8010C91
:10529C00F7E700BF34E103202CE1032024E10320D5
:1052AC0070470000F8B50D1E064614461F462DDB50
:1052BC0000F0BEFBA84229DD002C27DB304600F0B5
:1052CC00BAFBA04222DD304600F0A2FB02281ED021
:1052DC00032825D0012804D13389E2431A442C46F3
:1052EC0015B2002C2246B8BFE21DD210802112FB51
:1052FC0001550E49012204F007044B5702FA04F43D
:10530C0064B297420CBF2343A3434B55F8BD31897C
:10531C0072890139E4434D1B14442DB224B2E0E7E9
:10532C007389013B5B1B25461CB2DAE734E1032091
:10533C0010B524210446FEF7AAFE204610BD00003D
:10534C0038B5402204460D46802100F08BFA064BFE
:10535C002360FF2384F8213063774FF6FF73E383D8
:10536C0084F82050204638BD58820B0002484FF478
:10537C008062002102F0C0BD34E1032007B590F833
:10538C00223043B10191FFF7CBF9019903B05DF8DD
:10539C0004EB00F081BF0B46817F407F012203B0FC
:1053AC005DF804EB01F05BBF38B590F91D300133AB
:1053BC0004460D461DD090F92100012180B201F068
:1053CC0022FF94F91F00002180B201F01CFF94F918
:1053DC002100002180B201F016FF29462046FFF77C
:1053EC00CDFF94F921000121BDE8384080B201F0D5
:1053FC000ABF01F0B1FF94F91B1001F0EFFA01F0B4
:10540C00ABFF036800219B68984701F0A5FF036878
:10541C0029469B68984701F09FFFBDE8384001F092
:10542C00E4BA0000F8B521210446FFF7BDFF0021C6
:10543C002046FFF7B9FF7F212046FFF7B5FF222159
:10544C002046FFF7B1FF00212046FFF7ADFF0721F3
:10545C002046FFF7A9FF94F91D30294F01332AD0BC
:10546C0094F92100012180B201F0CDFE94F91F00C6
:10547C00012180B201F0C7FE94F92100002180B215
:10548C0001F0C1FE012000F019FB4FF48065013DD5
:10549C0017F8011B2046ADB2FFF770FF002DF6D1B7
:1054AC00012000F00BFB94F921000121BDE8F8402C
:1054BC0080B201F0A8BE002501F04EFF94F91B103C
:1054CC0001F08CFA01F048FF036840219B68984773
:1054DC0005F11006B6B201F03FFF0368795D9B68D9
:1054EC0098476B1C9DB2AE42F5D101F035FF01F02F
:1054FC007CFAB6F5806F00D1F8BD3546DCE700BF0D
:10550C0034E1032038B590F91D300177013304469E
:10551C000D46C27600F0C98090F91F00012180B2BF
:10552C0001F060FE94F92100012180B201F05AFED5
:10553C0094F82230002B00F0A68094F92100012170
:10554C0080B201F060FEFFF7EBF8012100F09CFD4A
:10555C00FFF7E6F8102100F079FEFFF7E1F80021E3
:10556C0000F0A6FDFFF7DCF800F07AFD94F92000BE
:10557C00012180B201F036FE94F92000012180B2A5
:10558C0001F041FE012000F09BFF94F92000002166
:10559C0080B201F038FE0A2000F092FF94F920004E
:1055AC00012180B201F02FFE2046AE21FFF7FCFE58
:1055BC002046D521FFF7F8FE20468021FFF7F4FEA8
:1055CC002046A821FFF7F0FE20463F21FFF7ECFE16
:1055DC002046D321FFF7E8FE20460021FFF7E4FE2A
:1055EC0020464021FFF7E0FE8D212046FFF7DCFE30
:1055FC00012D0CBF102114212046FFF7D5FE2046AB
:10560C002021FFF7D1FE20460021FFF7CDFE2046DA
:10561C00A121FFF7C9FE2046C821FFF7C5FE204691
:10562C00DA21FFF7C1FE20461221FFF7BDFE8121D2
:10563C002046FFF7B9FE012D0CBF9F21CF2120463C
:10564C00FFF7B2FED9212046FFF7AEFE012D0CBFAD
:10565C002221F1212046FFF7A7FE2046DB21FFF790
:10566C00A3FE20464021FFF79FFE2046A421FFF712
:10567C009BFE2046A621FFF797FE2046AF21BDE8F2
:10568C003840FFF791BE94F91D00012180B201F062
:10569C00A9FD94F91E00012180B201F0A3FD94F83C
:1056AC002230002B3FF462AF47E701F055FE01F0CA
:1056BC005FF95BE72DE9F04F85B01F46BDF93880E7
:1056CC00BDF83C30A8EB0209A7EB010AB9F1000FB9
:1056DC00B8BFC9F10009BAF1000FB8BFCAF1000A8E
:1056EC00D14583460C46154604DD3A462C464746C2
:1056FC000D469046BC4205DD2A464546904622465C
:10570C003C4617463E1BB2B20092A8EB050282EA59
:10571C00E271A1EBE271C6F3C03202FA86F645459E
:10572C00B4BF01224FF0FF32019176100292BC42BD
:10573C001CDCDBF800200393D145D2F81080C7BFE6
:10574C00294622462A4621465846C047019A039BC1
:10575C00B61AB1B236B2002E05DA029A1544009A86
:10576C0056182DB236B2013424B2E0E705B0BDE8CC
:10577C00F08F2DE9F347BDF82C800768BDF9289010
:10578C00CDF800800446FF6916468A461D46B84788
:10579C002368CDF8008009F1FF323244DF695146AD
:1057AC002B46204612B2B8472368CDF800809F697B
:1057BC0032464B4651462046B8476B1E03EB0A0156
:1057CC002368CDF828809D6932464B4609B22046A5
:1057DC00AC4602B0BDE8F047604737B5013B134417
:1057EC000468BDF8185001951BB2009364690B4610
:1057FC00A04703B030BD37B5BDF818500468CDE9EB
:10580C000025013B0B4464691BB2A04703B030BDBB
:10581C002DE9F347BDF92890BDF82C80054692463A
:10582C000C46CE18B4420BDA2B68CDF800809F6979
:10583C0021464B46524628460134B84724B2F1E77C
:10584C0002B0BDE8F08713B502680191B0F90E10F3
:10585C000091546AB0F90C3000221146A04702B0F6
:10586C0010BD704730B54281C2814FF0FF32002429
:10587C00054D426101224460056001818181046112
:10588C000283827630BD00BF8C870B002DE9F04F70
:10589C002DED028B8DB007460491BDF8601005917B
:1058AC00BDF864100691B0F90C1004989DF868507E
:1058BC00814252DDB7F90E1091424EDD062111FBEB
:1058CC000504002C49DD02EBC504002C45DD03EB7F
:1058DC0083030B9393B2079308339BB20891002474
:1058EC000993052C1CBF2C4B0B9A079E16BF1B193A
:1058FC0000239B5C0393049AABB20A9304FB05F35D
:10590C0013FA82F31BB204EB020A08EE103AB0460B
:10591C000FFA85F90FFA8AFA039BDB072FD5012DB5
:10592C003B681FD1D3F810B0059B32B251463846B4
:10593C00D847039B5B0803930A9B01369844099B49
:10594C00B6B2B3421FFA88F8E6D1089B013B01348A
:10595C0013F0FF0364B20893C3D10DB0BDEC028BFE
:10596C00BDE8F08F059ACDE9009218EE101AD3F825
:10597C0024B00FFA88F24B463846D847D9E7DDE910
:10598C0005239342D5D0012D3B6803D1D3F810B039
:10599C00069BCAE7069AE6E788820B0030B50A290F
:1059AC0085B0044607D1027E638A03EBC20363828F
:1059BC000023238221E00D291FD0037E0293C38A8A
:1059CC000193838A0093B0F912200B46B0F91010A2
:1059DC00FFF75CFF207E238A00EB400103EB4103C1
:1059EC00A17E1BB20246238239B1B4F90C106FF0C0
:1059FC00050505FB00118B42D6DC012005B030BD3E
:105A0C00012938BF012101767047C182818270471C
:105A1C00407E704701F00303B0F90A204376C907B2
:105A2C00B0F9083059BF8381C2818281C38170472C
:105A3C00B0F90C007047B0F90E00704708B5024B76
:105A4C001B689B68019308BD6802030008B5024BF4
:105A5C001B68DB68019308BD6802030008B5024BA4
:105A6C001B689B68019308BD2C02030008B5024B10
:105A7C001B68DB68019308BD2C02030008B5024BC0
:105A8C001B681B69019308BD2C02030008B5024B6F
:105A9C001B685B69019308BD2C02030008B5024B1F
:105AAC001B685B69019308BD6C02030008B5024BCF
:105ABC001B685B68019308BD1802030008B5024B14
:105ACC001B68DB68019308BD1802030008B5024B84
:105ADC001B681B69019308BD1802030008B5024B33
:105AEC001B685B69019308BD1802030008B5024BE3
:105AFC001B68DB6D019308BD1802030008B5024B4F
:105B0C001B685B6C019308BD4802030008B5024B8F
:105B1C001B685B69019308BD6402030008B5024B66
:105B2C001B681B6A019308BD6402030008B5024B95
:105B3C001B689B6A019308BD6402030008B5024B05
:105B4C001B68DB68019308BD3C02030008B5024BDF
:105B5C001B681B69019308BD3C02030008B5024B8E
:105B6C001B685B69019308BD3C02030008B5024B3E
:105B7C001B689B69019308BD3C02030008B5024BEE
:105B8C001B68DB69019308BD3C02030008B5024B9E
:105B9C001B681B6A019308BD3C02030008B5024B4D
:105BAC001B689B6A019308BD3C02030008B5024BBD
:105BBC001B681B6C019308BD3C02030008B5024B2B
:105BCC001B68DB68019308BD2802030008B5024B73
:105BDC001B689B69019308BD2802030008B5024BA2
:105BEC001B68DB69019308BD2802030008B5024B52
:105BFC001B681B6A019308BD2802030008B5024B01
:105C0C001B685B6A019308BD2802030008B5024BB0
:105C1C001B689B6A019308BD2802030008B5024B60
:105C2C001B68DB6A019308BD2802030008B5024B10
:105C3C001B681B6B019308BD2802030008B5024BBF
:105C4C001B685B6B019308BD2802030008B5024B6F
:105C5C001B681B6C019308BD2802030008B5024B9E
:105C6C001B681B6D019308BD2802030008B5024B8D
:105C7C001B689B69019308BD3802030008B5024BF1
:105C8C001B68DB69019308BD3802030008B5024BA1
:105C9C001B681B6A019308BD3802030008B5024B50
:105CAC001B689B6A019308BD3802030008B5024BC0
:105CBC001B681B6B019308BD3802030008B5024B2F
:105CCC001B689B6B019308BD3802030008B5024B9F
:105CDC001B681B68019308BD3002030008B5024B1A
:105CEC001B689B68019308BD3002030008B5024B8A
:105CFC001B68DB68019308BD3002030008B5024B3A
:105D0C001B681B69019308BD3002030008B5024BE8
:105D1C001B685B69019308BD3002030008B5024B98
:105D2C001B68DB69019308BD3002030008B5024B08
:105D3C001B681B6A019308BD3002030008B5024BB7
:105D4C001B685B6A019308BD3002030008B5024B67
:105D5C001B68DB6B019308BD3002030008B5024BD6
:105D6C001B681B6C019308BD3002030008B5024B85
:105D7C001B685B6C019308BD3002030008B5024B35
:105D8C001B681B68019308BD4C02030008B5024B4D
:105D9C001B685B68019308BD4C02030008B5024BFD
:105DAC001B681B69019308BD4C02030008B5024B2C
:105DBC001B685B69019308BD4C02030008B5024BDC
:105DCC001B689B69019308BD4C02030008B5024B8C
:105DDC001B68DB69019308BD4C02030008B5024B3C
:105DEC001B681B6A019308BD4C02030008B5024BEB
:105DFC001B689B6A019308BD4C02030008B5024B5B
:105E0C001B685B6B019308BD6002030008B5024B75
:105E1C001B681B6D019308BD6002030008B5024BA3
:105E2C001B685B68019308BD2002030008B5024B98
:105E3C001B685B69019308BD2002030008B5034B86
:105E4C001B68D3F88830019308BD000020020300C2
:105E5C0008B5034B1B68D3F89430019308BD0000C0
:105E6C002002030008B5024B1B685B68019308BD58
:105E7C004002030008B5024B1B689B68019308BDE8
:105E8C004002030008B5024B1B68DB68019308BD98
:105E9C004002030008B5024B1B681B69019308BD47
:105EAC004002030008B5024B1B685B69019308BDF7
:105EBC004002030008B5024B1B689B69019308BDA7
:105ECC004002030008B5024B1B68DB69019308BD57
:105EDC004002030008B5024B1B681B6A019308BD06
:105EEC004002030008B5024B1B689B6A019308BD76
:105EFC004002030008B5024B1B681B6B019308BDE5
:105F0C004002030008B5024B1B685B6B019308BD94
:105F1C004002030008B5024B1B681B6C019308BDC3
:105F2C004002030008B5024B1B685B6C019308BD73
:105F3C004002030008B5024B1B689B68019308BD27
:105F4C004402030008B5024B1B68DB6B019308BDD0
:105F5C004402030008B5024B1B681B68019308BD83
:105F6C001C02030008B5024B1B685B68019308BD5B
:105F7C001C02030008B5024B1B689B68019308BD0B
:105F8C001C02030008B5024B1B685B6A019308BD39
:105F9C001C02030008B5024B1B68DB6B019308BDA8
:105FAC001C02030008B5024B1B681B6C019308BD57
:105FBC001C02030008B5024B1B685B6C019308BD07
:105FCC001C020300002240681146FFF783BF002229
:105FDC0040681146FFF796BF40680022FFF78ABF62
:105FEC004068002281F00101FFF76CBF002340687C
:105FFC001A461946FFF75EBF002340681A46194639
:10600C00FFF750BF002240681146FFF743BF002244
:10601C0040681146FFF72EBF406800220221FFF7AF
:10602C0031BF002340681A46FFF71CBF024B032206
:10603C005A60024A1A607047C4E60320C4870B00FA
:10604C000021FFF793BE0021FFF788BE10B5044670
:10605C0008462170FFF762FE00236360204610BDE6
:10606C0013B504460078FFF7EEFF58B9207801907D
:10607C004FF6FF71FFF72AFE019802B0BDE8104001
:10608C00FFF7DEBF02B010BD13B5044600780191D6
:10609C00FFF7D9FF019948B920780190FFF71EFE50
:1060AC00019802B0BDE81040FFF7CABF02B010BDA6
:1060BC0013B5044600780191FFF7C5FF019948B963
:1060CC0020780190FFF712FE019802B0BDE8104055
:1060DC00FFF7B6BF02B010BD0078FFF7B1BF0000EC
:1060EC00400830B51860002418688842E5B206D91B
:1060FC000134082C02D040081860F5E70725024B44
:10610C005B5D137030BD00BFF8870B002DE9F043C9
:10611C0006468FB000780C46FFF795FF00281BDB76
:10612C0035781422002109A801F0E6FE0B23002289
:10613C0009A92846ADF82430FFF700FE9DF82D3054
:10614C0013B19DF82C5055B10027B946B84601251E
:10615C0023795DB1C3B100200FB0BDE8F083DDF849
:10616C0030809DF834909DF83570F1E7002B35D1D7
:10617C00A368434508D18DF820908DF82170BDF8A7
:10618C002020A3899A42E6D00023A1688DF80F3015
:10619C000A9804AB0DF10F02FFF7A2FF217985B924
:1061AC0089B9A36843450ED38DF820908DF82170E2
:1061BC00BDF82020A3899A4205D1049B434502D106
:1061CC00C9E70029F9D100230193637B00939DF863
:1061DC000F20237B3078FFF7B9FDBCE7CDE90055E4
:1061EC002B462A460121F5E72DE9F04188B0002322
:1061FC000446007802930E461746FFF724FF054627
:10620C0000BB94F800800146142203A801F074FE30
:10621C000B232A4603A94046ADF80C30FFF78EFD40
:10622C0004988DF8075002AB0DF1070207FB06F13D
:10623C00FFF756FF20789DF80710FFF75FFD2078D9
:10624C00FFF7FEFE029808B0BDE8F08138B50446B1
:10625C0000780D46FFF7F7FE0346D0B9616899B197
:10626C000C4A12F8010B854202D00133082BF8D1ED
:10627C000133DBB20122D9402046FFF7B5FF20786D
:10628C00BDE83840FFF7DCBE20782946FFF736FD25
:10629C00F5E738BDF8870B0008B50078FFF736FD39
:1062AC00C0B208BD054B02221A60054B054A9A6024
:1062BC000020C3E90000FFF7B1BD00BFD8E6032002
:1062CC00CCE603200000FFFF10B50446006808B1BF
:1062DC00FFF748FE0023C4E90133236010BD38B535
:1062EC0004460D4600680131FFF744FE10B1C4E9C5
:1062FC000005012038BD10B50368044623B143687E
:10630C008B4201D3012010BD2046FFF7E8FF002887
:10631C00F9D0A368002BF5D122681370F2E737B5DA
:10632C000D46114601920446FFF7E5FF019A28B984
:10633C002046FFF7C9FF204603B030BDA2602946B6
:10634C00206801F0CBFD2268A3680021D154F2E74C
:10635C00002313B5C0E9003304468360037341B1D5
:10636C000846019101F008FE019902462046FFF70C
:10637C00D6FF204602B010BD024800230360FFF791
:10638C00BDBB00BFDCE60320F8B506460D468F18F2
:10639C000024BD420CD0336815F8011B9B683046B5
:1063AC009847031E01DB1C44F3E7002C08BF1C4676
:1063BC002046F8BD13B50446084659B1019101F0C9
:1063CC00DBFD23680199DB680246204602B0BDE87C
:1063DC001040184702B010BD08B5FFF7EBFF08BD21
:1063EC0003689B68184738B50D210546FFF7F8FF81
:1063FC000A2104462846FFF7F3FF204438BD30B588
:10640C008BB00023012A8DF8243098BF0A2209ACE6
:10641C000D46B1FBF2F101FB125303F0FF03092B04
:10642C0094BF30333733DBB2AA4204F8013DEFD9C5
:10643C002146FFF7BFFF0BB030BD2DE9F04186B010
:10644C0000AF05460E46381D142114463B60FFF77D
:10645C0099FD13280ED8391D2846FFF7ABFF0446CB
:10646C001EB12846FFF7BFFF044420461837BD462F
:10647C00BDE8F08100F1080323F00703E846ADEB1B
:10648C00030D2246411C3B686846FFF77BFD6946BD
:10649C002846FFF78FFF0446C546E1E7014B024A49
:1064AC001A607047E0E6032008880B00024B1A685C
:1064BC00024B1A60704700BF34E50320E4E603206A
:1064CC000021FFF7B3BC0000014B00229A6070471B
:1064DC00E8E60320014B1860704700BF38E5032045
:1064EC0008B50B4B43B100F081F903681B69984761
:1064FC00002801DDAFF30080064B43B100F0ECFE49
:10650C0003681B699847002801DDAFF3008008BDC4
:10651C00000000000000000008B5FFF7E1FFFFF7E6
:10652C00DDFA014B186008BD40E703200548064A18
:10653C00064908B5121A01F0D1FC054B054A1A6040
:10654C0008BD00BF00F4032004F403209C8B0B0057
:10655C0000F403201E1C279A07B5002300931A464B
:10656C006FF07701FFF774FC03B05DF804FB0000DB
:10657C0007B543880A2B08D0502B0BD1094B1B684D
:10658C004BB103B05DF804EB1847FFF7E5FF03B020
:10659C005DF804FB002300931A466FF07701FFF7B8
:1065AC0057FCF4E7FCE6032010B512480021FFF776
:1065BC0001FD114B1A68114B9A42114B0CBF012271
:1065CC0000221A7001D0FFF7B1FFFFF76FFA0446F3
:1065DC0001F09AFC0B4B13B12046AFF30080002165
:1065EC000848FFF7AFFCBDE8104007480021FFF753
:1065FC0025BC00BFE1640B0000F403201E1C279A8D
:10660C00F8E60320000000007D650B00704710B514
:10661C0018210446FDF73BFD204610BDF0B5037D67
:10662C00062B8DB00E4600F104074FF0000412D07B
:10663C0000F1080515F8011D0A223046FFF7DFFEB0
:10664C00AF42044419D0002CF4D02E213046FFF771
:10665C00C7FE0444EEE72F236A4639460A208DF81C
:10666C000040FFF753FA684601F086FC3368024697
:10667C00DB68694630469847044620460DB0F0BDAD
:10668C0010B5054B0446112240F8043B002101F0E3
:10669C0033FC204610BD00BF30880B000346074A70
:1066AC0010B543F8042B01F1100251F8044B43F8D8
:1066BC00044B9142F9D10A781A7010BD30880B0046
:1066CC00037D042B04D14068003818BF01207047AB
:1066DC00062B07D143683BB983682BB9C3681BB938
:1066EC000069F1E7002070470120704710B59DF854
:1066FC00084044EA032343EA024242EA01610423CC
:10670C004160037510BD000007B5064B0360CB78E4
:10671C0000938B784A780978FFF7E8FF03B05DF8AF
:10672C0004FB00BF30880B00417470477047704702
:10673C0008B50021007CFFF741FB40EAE07008BD82
:10674C0008B50121007CFFF739FB40EAE07008BD79
:10675C0008B5007CFFF72AFB20EAE07008BD08B5FD
:10676C00007CFFF71BFB20EAE07008BD13B5044664
:10677C00007C0191FFF71AFB0028019901DC607C79
:10678C0020B1207CFFF722FB20EAE07002B010BDA4
:10679C00007CFFF723BB10B514210446FDF777FCF2
:1067AC00204610BD10B54FF47A73044608460021FC
:1067BC00C4E90113044B2360012320746374114654
:1067CC00FFF7DCFA204610BD44880B00007C002249
:1067DC00FFF7DCBA007CFFF709BB10B514220446A6
:1067EC00002101F089FB204610BD000010B50F4CB4
:1067FC0088B003A8FFF7F1FF2178BFF35B8F11F08E
:10680C0001010FD120460191FDF750FC019948B1CF
:10681C0003AA0748FFF7C6FF2046FDF74CFC0548C6
:10682C0001F056FB024808B010BD00BF00E7032082
:10683C0004E7032039670B0070474174704708B5B3
:10684C00007CFFF7ABF920EAE07008BD08B5007CCE
:10685C00FFF77CF920EAE07008BD08B5007CFFF773
:10686C0085F940EAE07008BD08B5007CFFF776F9C1
:10687C0040EAE07008BD007CFFF780B937B5457C75
:10688C0004462DB1207C03B0BDE83040FFF756B96B
:10689C00007C0191FFF782F900280199F2DC28466F
:1068AC0003B030BD10B514210446FDF7F0FB2046B3
:1068BC0010BD000010B54FF47A730446084611461B
:1068CC000022C4E90123044B236001232074637468
:1068DC00FFF76CF9204610BD74880B007047F8B5B3
:1068EC00064615460C468F18BC4206D0336814F881
:1068FC00011B9B6830469847F6E72846F8BD007C9C
:10690C000022FFF773B9007C0021FFF777B9007CF8
:10691C000021FFF77BB9007C0021FFF77FB9007CD9
:10692C000021FFF783B910B514210446FDF7AFFB26
:10693C00204610BD38B5044615464FF47A73002234
:10694C00C4E90123094B2174084623602946FFF74B
:10695C007DF9BF3008D16B69DB0705D56868FFF797
:10696C0001FBE868FFF7FEFA204638BDA4880B004F
:10697C000023007C1A461946FFF720B97FB5002288
:10698C001423CDE90122ADF804300B788DF80830D2
:10699C004B680393CB680493007C0B7A059301A995
:1069AC00FFF75CF907B05DF804FB1FB5003B8DF8F1
:1069BC0000104FF06401039118BF01236946019246
:1069CC008DF80830FFF7DAFF05B05DF804FB012302
:1069DC00FFF7EBBF007C0022FFF7F8B8C9B2FFF756
:1069EC00F9BF007C0022FFF7F9B80121FFF7F9BFCE
:1069FC0013B503688DF80710DC6B01224FF0FF33E1
:106A0C000DF10701A04702B010BD10B40368DC6B98
:106A1C004FF0FF33A4465DF8044B604713B51346A3
:106A2C0002688DF80710D46B0DF107010122A04705
:106A3C0002B010BD10B54369B3F88620B3F88430AA
:106A4C009A42044608D06369B3F88420511CA3F819
:106A5C0084101344187910BD03681B6998470028EB
:106A6C00F1D14FF0FF30F6E7704743691868C04327
:106A7C00C00F704770470000064B994210B500F1EB
:106A8C000C0405D0084600F08DFC002808BF00243B
:106A9C00204610BD00880B0010B5AC210446FDF754
:106AAC00F6FA204610BDAC21FDF7F1BA2DE9F04104
:106ABC004FF0000886B01C46C0F8048005460E4610
:106ACC0017464146102202A801F016FA631C09D0A1
:106ADC004FF47A73B4FBF3F203FB1244CDE90228B2
:106AEC005C430494686910230093006802AB41F284
:106AFC00050240F6FF71FFF7B9F8002807DAFFF737
:106B0C0049FA03686B60002006B0BDE8F081686943
:106B1C00002300683A463146FFF7C8F8031EEEDB47
:106B2C001846F1E730B587B0044601AD6846FFF76B
:106B3C00EBFD0FCD04340FC42B68237007B030BDB0
:106B4C0070B54D69054B04468C3544F8043B06463C
:106B5C000FCD0FC42B682370304670BD30880B00EE
:106B6C002DE9F0439846036893B00D460024DB6A88
:106B7C0006461746984728466B46224621460094FF
:106B8C00FEF764FF0546002863D1009B002B4BD019
:106B9C005B69002B48D006A8FFF772FD009B5C696F
:106BAC006378022B04D1211D06A8FFF7BBFF26E05A
:106BBC000A2B24D11122294601A801F09DF9A368C2
:106BCC00002B38D004F108030DF1040C18341868AC
:106BDC005968624603C20833A3429446F7D1062390
:106BEC0001A90CA88DF81430FFF758FD0DF1340CE9
:106BFC00BCE80F0007AC0FC4DCF80030237006A80B
:106C0C00FFF75EFD80B1336807ADD3F82090124BCF
:106C1C000C930FCD0DAC0FC42B6823703A46434632
:106C2C000CA93046C84705460098FEF707FF2846D2
:106C3C0013B0BDE8F083E368002BC3D14FF6FF70AF
:106C4C00D4F81090FEF76AFF8145BBD104F1140112
:106C5C00AAE72546E8E700BF30880B0038B5436942
:106C6C001A68002A054610DAB3F88620B3F8843087
:106C7C009A420AD103681B699847044628B92B68C5
:106C8C002846DB6A9847204638BD0120FCE710B542
:106C9C004369B3F88620B3F884309A42044605D091
:106CAC006369B3F884201344187910BD03681B6919
:106CBC0098470028F4D14FF0FF30F6E7F8B5436958
:106CCC001746B3F88620B3F884309A4205460E4630
:106CDC0016D06969B1F88430B1F88640E41ABC4228
:106CEC0028BF3C46043322461944304601F0F6F8DE
:106CFC006A69B2F884302344A2F884302046F8BD87
:106D0C0003681B6998470028E3D14FF0FF34F5E77F
:106D1C0042690023A2F884304269A2F88630704799
:106D2C002DE9F0411F4603680C46DB6A8AB0054624
:106D3C0016469847237DD5F81480042B0CBF0220EF
:106D4C000A2006220121FEF7B9FFC8F800006B6982
:106D5C001B68002B08DA2B682846DB6A002498474E
:106D6C0020460AB0BDE8F0812846FFF7D1FFB7B145
:106D7C00002303A9F8B20393ADF81030FEF78EFE92
:106D8C000028E8D1686906230093006803AB41F240
:106D9C000B0240F6FF71FEF769FF0028DBD11C22C5
:106DAC00002103A801F0A8F8237D042B1DD14FF47A
:106DBC0007733046ADF80C30FEF7B8FEADF80E0098
:106DCC006068FEF7ABFE04906B691C22186803A97F
:106DDC00FEF75CFF0028BED104340FCC6D698C35F6
:106DEC000FC523682B700124BAE740F61C233046EC
:106DFC00ADF80C30FEF79AFE05AEADF80E00231D73
:106E0C0004F1140718685968324603C20833BB42B0
:106E1C001646F7D1D8E7000030B54269B2F8863093
:106E2C008BB004462BB1B2F884209A4201D1FFF703
:106E3C006FFF61690868002818DBB1F886507F2D58
:106E4C0014D804310823C5F180022944FEF726FF2B
:106E5C00002813DD6369B3F886200AB9A3F88420EF
:106E6C006369B3F886201044A3F886006369B3F80D
:106E7C008600B3F88430C01A0BB030BDFFF78AF827
:106E8C0003680B2BF2D0FFF785F803680B2BEDD0C2
:106E9C0020230025CDE90235FFF77CF80368019328
:106EAC00084B0949009302AA2B463220FEF7AEFF8D
:106EBC0063691868FEF7E2FE63694FF0FF321A60EF
:106ECC00D4E700BFCB880B00C4880B0010B5436916
:106EDC0004461868002801DBFEF7D0FE63694FF00A
:106EEC00FF321A606069112200218C3001F004F825
:106EFC002046BDE81040FFF70BBF10B50023044639
:106F0C000160C0F884308830FFF7BAFB204610BD12
:106F1C0073B500234FF47A72C0E901320E4A036153
:106F2C00026043610446AC200191FDF7ACF8051EEC
:106F3C0005F10C0608D00123C5E90133074B019973
:106F4C002B603046FFF7D9FF2046C4E90565FFF7F3
:106F5C00DFFE02B070BD00BF00890B00E4880B009F
:106F6C0010B54FF0FF310446FFF7D2FF204610BD9D
:106F7C0010B504460068002801DBFEF77FFE2046B2
:106F8C0010BD0C30FFF7F4BF002240681146FEF72D
:106F9C0081BF002240681146FEF79CBF002240686A
:106FAC001146FEF7AFBF40680022FEF7A3BF406852
:106FBC00002281F00101FEF785BF002340681A46CC
:106FCC001946FEF777BF002340681A461946FEF7AC
:106FDC0069BF002240681146FEF74CBF4068002292
:106FEC000221FEF74FBF002340681A46FEF73ABF56
:106FFC00024B04225A60024A1A60704718E70320B9
:10700C004C890B00002340681A46FEF72BBF4068E2
:10701C0000220221FEF736BF002240681146FEF71F
:10702C0029BF002240681146FEF734BF0023406898
:10703C001A461946FEF736BF002340681A46194611
:10704C00FEF738BF40680021FEF764BF406800219E
:10705C00FEF768BF4068002281F00101FEF732BFE5
:10706C0040680022FEF746BF002240681146FEF73A
:10707C0049BF002240681146FEF72CBF2DE9F043B2
:10708C0095B014460D460746FFF7FAFA00211C226C
:10709C000DA8009100F030FF40230C9320466B4666
:1070AC000CAA0021FEF7D2FC044600284BD1024664
:1070BC0001216868FEF7EEFE0221804622466868D0
:1070CC00FEF7E8FE009E81462146002E3BD00029AB
:1070DC0039D17368022B03D00A2B11D0F669F4E76F
:1070EC00B8F1000FFAD0716906A8043107ADFFF7AB
:1070FC000BFB0FCD3C1D0FC42B6823704146EDE7F5
:10710C00B9F1000FEAD07469102201A800F0F4FE66
:10711C0006238DF8143001AD04F1080318341868F7
:10712C0059682A4603C20833A3421546F7D101A970
:10713C0006A807ADFFF7B2FA0FCD3C1D0FC42B68A4
:10714C0023704946CAE70098FEF778FC384615B01C
:10715C00BDE8F083024B034A1A6000225A60704764
:10716C0020E7032088890B00232813B502D90020BF
:10717C0002B010BDA0F10B03022B1AD8174C2178CA
:10718C00BFF35B8F11F001010BD120460191FCF78D
:10719C008DFF019928B11248FEF758FF2046FCF7E5
:1071AC008AFF0F4B1878FEF7C1FD0028DFD10120B4
:1071BC00DEE7012809D800F0CFF80021007CFEF7AB
:1071CC003DFD80F00100C0B2D2E709380128EED8AD
:1071DC0000F082F8007CFEF7D9FCF2E7B8E6032059
:1071EC00BCE60320232838B504460D460AD8FF29EF
:1071FC0008D0FFF7B9FF28B129462046BDE8384032
:10720C00FEF72CBC38BD38B504460D46FEF72EFCF7
:10721C00FF2810D0062804D84D2323FA00F0C3070A
:10722C0009D42046FFF7A0FF28B129462046BDE827
:10723C003840FEF723BC38BD10B50446FEF716FCEB
:10724C00031FDBB2012B08D92046FFF78DFF20B1BD
:10725C002046BDE81040FEF719BC002010BD2DE9FA
:10726C00F04190461F46072406460D46C4F107011F
:10727C00B8F1000F12D147FA01F101F001013046CB
:10728C00FFF7C1FF01212846FFF7BDFF002128466B
:10729C00FFF7B9FF013CE9D2BDE8F08147FA04F1F0
:1072AC00EBE7704738B5044614252A46002100F058
:1072BC0023FE25804025074925812846258200F09C
:1072CC006FF804496060284600F06AF8E0602046D8
:1072DC0038BD00BFBC890B0030B50E4D2978BFF30B
:1072EC005B8F11F0010487B011D12846FCF7DEFE4C
:1072FC0068B101A8FFF7D6FF01AA21460648FFF79F
:10730C00D9FA2846FCF7D7FE044800F0E1FD024804
:10731C0007B030BD28E703202CE70320AF720B0029
:10732C007047000038B50A4B0360012304464361E3
:10733C000849202000F034F8202560600549A5603C
:10734C00284600F02DF8C4E90305204638BD00BFDF
:10735C0018000100BC890B0030B50E4D2978BFF325
:10736C005B8F11F0010487B011D12846FCF79EFE0B
:10737C0068B16846FFF7D6FF6A4621460648FFF714
:10738C00D9FA2846FCF797FE044800F0A1FD024804
:10739C0007B030BD44E7032048E703202D730B00F2
:1073AC00FCF773BE014900F0F9B800BFD8890B0097
:1073BC007FB500241023CDE90234036815469E697D
:1073CC0012686B46CDE90044B0479DF8043003F0D9
:1073DC000603062B03BF009B2B600120204604B044
:1073EC0070BD0098904214BF012006207047000029
:1073FC0010B5034B0360044600F0CDF8204610BDD9
:10740C00188A0B0010B50446FFF7F2FF204608213E
:10741C00FCF73DFE204610BD2DE9F0411F46DDE98D
:10742C000834DDF8188098450646154607D10799AB
:10743C0000F0B4F818B165710020BDE8F081394650
:10744C00304600F0ABF80028F6D00123C4F80080D9
:10745C002571A371F0E738B515461C4600F09EF86F
:10746C0020B10823E36006232560237138BD73B572
:10747C0005460C4601921E4600F090F850B9032EBA
:10748C0008D82368019A5B692946204602B0BDE8FA
:10749C007040184702B070BD10B5034B0360044632
:1074AC00FFF7A6FF204610BD788A0B0010B50446E6
:1074BC00FFF7F2FF20460C21FCF7E9FD204610BD3A
:1074CC00F7B5089F974205460E4614460AD0A868A1
:1074DC0002680897156A31462246AC4603B0BDE8EF
:1074EC00F04060471946019300F058F8019B0028C2
:1074FC00EDD0062003B0F0BD2DE9F14F0D46194635
:10750C00DDE90A4BDDE90CA681461746984600F0EA
:10751C0045F890B1002D3460377109DB61198A454B
:10752C000CBF06210121B171002001B0BDE8F08F24
:10753C000235F9D10123B371F6E7544506D159460A
:10754C00484600F02BF808B17771EDE7D9F8080040
:10755C000368CDE90CA6CDE90A4BDC693A464346F3
:10756C002946A44601B0BDE8F04F60472DE9F04133
:10757C0007460C4615461E46FFF76DFF48B9B8681E
:10758C0003689F692A4633462146BC46BDE8F04154
:10759C006047BDE8F081704700207047814208B514
:1075AC000ED0406803782A2B0CD049680B782A2B14
:1075BC0008BF013100F0D6FCB0FA80F0400908BDDC
:1075CC000120FCE70020FAE781F0004102E000BF57
:1075DC0083F0004330B54FEA41044FEA430594EA87
:1075EC00050F08BF90EA020F1FBF54EA000C55EAC2
:1075FC00020C7FEA645C7FEA655C00F0E2804FEA93
:10760C005454D4EB5555B8BF6D420CDD2C4480EA74
:10761C00020281EA030382EA000083EA010180EAA4
:10762C00020281EA0303362D88BF30BD11F0004FF2
:10763C004FEA01314FF4801C4CEA113102D0404228
:10764C0061EB410113F0004F4FEA03334CEA133363
:10765C0002D0524263EB430394EA050F00F0A7807B
:10766C00A4F10104D5F1200E0DDB02FA0EFC22FA76
:10767C0005F2801841F1000103FA0EF2801843FA6A
:10768C0005F359410EE0A5F120050EF1200E012A5B
:10769C0003FA0EFC28BF4CF0020C43FA05F3C01899
:1076AC0051EBE37101F0004507D54FF0000EDCF112
:1076BC00000C7EEB00006EEB0101B1F5801F1BD3BB
:1076CC00B1F5001F0CD349085FEA30004FEA3C0CBF
:1076DC0004F101044FEA445212F5800F80F09A80B5
:1076EC00BCF1004F08BF5FEA500C50F1000041EBB9
:1076FC00045141EA050130BD5FEA4C0C404141EBBD
:10770C000101013C28BFB1F5801FE9D291F0000FB7
:10771C0004BF01460020B1FA81F308BF2033A3F166
:10772C000B03B3F120020CDA0C3208DD02F1140C5D
:10773C00C2F10C0201FA0CF021FA02F10CE002F198
:10774C001402D8BFC2F1200C01FA02F120FA0CFC91
:10775C00DCBF41EA0C019040E41AA2BF01EB0451DA
:10776C00294330BD6FEA04041F3C1CDA0C340EDCD8
:10777C0004F11404C4F1200220FA04F001FA02F31B
:10778C0040EA030021FA04F345EA030130BDC4F1D9
:10779C000C04C4F1200220FA02F001FA04F340EACE
:1077AC000300294630BD21FA04F0294630BD94F07F
:1077BC00000F83F4801306BF81F480110134013D66
:1077CC004EE77FEA645C18BF7FEA655C29D094EAD7
:1077DC00050F08BF90EA020F05D054EA000C04BF55
:1077EC001946104630BD91EA030F1EBF0021002040
:1077FC0030BD5FEA545C05D14000494128BF41F0DF
:10780C00004130BD14F580043CBF01F5801130BD42
:10781C0001F0004545F0FE4141F470014FF00000CD
:10782C0030BD7FEA645C1ABF194610467FEA655C7E
:10783C001CBF0B46024650EA013406BF52EA033520
:10784C0091EA030F41F4002130BD00BF90F0000F0E
:10785C0004BF0021704730B54FF4806404F132044A
:10786C004FF000054FF0000150E700BF90F0000F03
:10787C0004BF0021704730B54FF4806404F132042A
:10788C0010F0004548BF40424FF000013EE700BFFA
:10789C0042004FEAE2014FEA31014FEA02701FBF8A
:1078AC0012F07F4393F07F4F81F06051704732F0BC
:1078BC007F4208BF704793F07F4F04BF41F4002113
:1078CC00704730B54FF4607401F0004521F0004171
:1078DC001CE700BF50EA010208BF704730B54FF0FB
:1078EC0000050AE050EA010208BF704730B511F0FC
:1078FC00004502D5404261EB41014FF4806404F134
:10790C0032045FEA915C3FF4D8AE4FF003025FEAB9
:10791C00DC0C18BF03325FEADC0C18BF033202EB3D
:10792C00DC02C2F1200300FA03FC20FA02F001FA97
:10793C0003FE40EA0E0021FA02F11444BDE600BF3A
:10794C0080F0004002E000BF81F0004142001FBF08
:10795C005FEA410392EA030F7FEA226C7FEA236C11
:10796C006AD04FEA1262D2EB1363C1BFD218414006
:10797C0048404140B8BF5B42192B88BF704710F09C
:10798C00004F40F4000020F07F4018BF404211F03F
:10799C00004F41F4000121F07F4118BF494292EAA7
:1079AC00030F3FD0A2F1010241FA03FC10EB0C00D3
:1079BC00C3F1200301FA03F100F0004302D5494260
:1079CC0060EB4000B0F5000F13D3B0F1807F06D30D
:1079DC0040084FEA310102F10102FE2A51D2B1F105
:1079EC00004F40EBC25008BF20F0010040EA0300FA
:1079FC007047490040EB0000013A28BFB0F5000F7A
:107A0C00EDD2B0FA80FCACF1080CB2EB0C0200FA2F
:107A1C000CF0AABF00EBC25052421843BCBFD0407E
:107A2C001843704792F0000F81F4000106BF80F4F8
:107A3C0000000132013BB5E74FEA41037FEA226CBB
:107A4C0018BF7FEA236C21D092EA030F04D092F086
:107A5C00000F08BF0846704790EA010F1CBF0020BA
:107A6C00704712F07F4F04D1400028BF40F0004017
:107A7C00704712F100723CBF00F50000704700F037
:107A8C00004343F0FE4040F4000070477FEA22625E
:107A9C0016BF08467FEA23630146420206BF5FEA2F
:107AAC00412390EA010F40F4800070474FF000032F
:107ABC0004E000BF10F0004348BF40425FEA000CF6
:107ACC0008BF704743F0964301464FF000001CE09E
:107ADC0050EA010208BF70474FF000030AE000BFF4
:107AEC0050EA010208BF704711F0004302D5404232
:107AFC0061EB41015FEA010C02BF844601460020A4
:107B0C0043F0B64308BFA3F18053A3F50003BCFABE
:107B1C008CF2083AA3EBC25310DB01FA02FC63446B
:107B2C0000FA02FCC2F12002BCF1004F20FA02F272
:107B3C0043EB020008BF20F00100704702F1200265
:107B4C0001FA02FCC2F1200250EA4C0021FA02F2C6
:107B5C0043EB020008BF20EADC7070477BB972B9B6
:107B6C000029BEBF00204FF0004106E008BF0028EE
:107B7C001CBF6FF000414FF0FF3000F0A7B9ADF122
:107B8C00080C6DE904CE002909DB002B1ADB00F090
:107B9C0035F8DDF804E0DDE9022304B0704740421B
:107BAC0061EB4101002B1BDB00F028F8DDF804E051
:107BBC00DDE9022304B0404261EB4101524263EB28
:107BCC0043037047524263EB430300F017F8DDF8B0
:107BDC0004E0DDE9022304B0404261EB410170474F
:107BEC00524263EB430300F009F8DDF804E0DDE9F1
:107BFC00022304B0524263EB430370472DE9F04774
:107C0C00089D04468E46002B4DD18A42944669D974
:107C1C00B2FA82F252B101FA02F3C2F1200120FA57
:107C2C0001F10CFA02FC41EA030E94404FEA1C48A5
:107C3C00210CBEFBF8F61FFA8CF708FB16E341EAA1
:107C4C00034306FB07F199420AD91CEB030306F127
:107C5C00FF3080F01F81994240F21C81023E634448
:107C6C005B1AA4B2B3FBF8F008FB103344EA0344EC
:107C7C0000FB07F7A7420AD91CEB040400F1FF3301
:107C8C0080F00A81A74240F207816444023840EA3E
:107C9C000640E41B00261DB1D4400023C5E9004377
:107CAC003146BDE8F0878B4209D9002D00F0EF80FA
:107CBC000026C5E9000130463146BDE8F087B3FA2D
:107CCC0083F6002E4AD18B4202D3824200F2F98015
:107CDC00841A61EB030301209E46002DE0D0C5E918
:107CEC00004EDDE702B9FFDEB2FA82F2002A40F064
:107CFC009280A1EB0C014FEA1C471FFA8CFE012667
:107D0C00200CB1FBF7F307FB131140EA01410EFB0A
:107D1C0003F0884208D91CEB010103F1FF3802D2B1
:107D2C00884200F2CB804346091AA4B2B1FBF7F0AB
:107D3C0007FB101144EA01440EFB00FEA64508D9CE
:107D4C001CEB040400F1FF3102D2A64500F2BB800B
:107D5C000846A4EB0E0440EA03409CE7C6F120075A
:107D6C00B34022FA07FC4CEA030C20FA07F401FAA0
:107D7C0006F31C43F9404FEA1C4900FA06F3B1FB29
:107D8C00F9F8200C1FFA8CFE09FB181140EA01418E
:107D9C0008FB0EF0884202FA06F20BD91CEB01012B
:107DAC0008F1FF3A80F08880884240F28580A8F183
:107DBC0002086144091AA4B2B1FBF9F009FB1011D5
:107DCC0044EA014100FB0EFE8E4508D91CEB010173
:107DDC0000F1FF346CD28E456AD90238614440EA16
:107DEC000840A0FB0294A1EB0E01A142C846A64696
:107DFC0056D353D05DB1B3EB080261EB0E0101FA1F
:107E0C0007F722FA06F3F1401F43C5E9007100267B
:107E1C003146BDE8F087C2F12003D8400CFA02FCD1
:107E2C0021FA03F3914001434FEA1C471FFA8CFEE1
:107E3C00B3FBF7F007FB10360B0C43EA064300FBD1
:107E4C000EF69E4204FA02F408D91CEB030300F16F
:107E5C00FF382FD29E422DD9023863449B1B89B226
:107E6C00B3FBF7F607FB163341EA034106FB0EF3AF
:107E7C008B4208D91CEB010106F1FF3816D28B425C
:107E8C0014D9023E6144C91A46EA004638E72E4628
:107E9C00284605E70646E3E61846F8E64B45A9D220
:107EAC00B9EB020864EB0C0E0138A3E74646EAE78F
:107EBC00204694E74046D1E7D0467BE7023B61443D
:107ECC0032E7304609E76444023842E7704700BFA6
:107EDC00002301461A46184600F056B80A4491424F
:107EEC0000F1FF3300D1704710B511F8014B03F8C6
:107EFC00014F9142F9D110BD02440346934200D187
:107F0C00704703F8011BF9E738B5104B1D68AB6BD4
:107F1C000446B3B91820FEF71DF80246A86320B931
:107F2C000B4B0C484221FEF73DF80B490B4BC0E9BB
:107F3C0000130B4B83600B23838100210120C2E9CA
:107F4C000401AB6B00221C615A6138BD38E503207B
:107F5C00B18A0B00C88A0B000E33CDAB34126DE620
:107F6C00ECDE050010F8012B11F8013B012A28BFAB
:107F7C009A42F7D0D01A7047034613F8012B002A07
:107F8C00FBD1181A013870472DE9F843DFF8B88097
:107F9C000646D8F800001F460D46914600F056F8EC
:107FAC00254B1C6834B9254C1C60254B13B11B6840
:107FBC00C4F8883063681F2B07DDD8F8000000F088
:107FCC0047F84FF0FF30BDE8F8834EB3D4F8880083
:107FDC0088B91C4B23B9D8F8000000F038F8F0E74A
:107FEC004FF48470FDF7B6FF0028F4D00023C0E9ED
:107FFC004033C4F88800636840F8239001229A400B
:10800C0000EB8301D0F800311343C0F80031022E8D
:10801C00C1F8807002BFD0F804311343C0F80431AA
:10802C006368D8F800005A1C0233626044F823508D
:10803C0000F00EF80020C6E7E8E703205CE7032019
:10804C0000000000615F0B009CE503207047704747
:10805C00704700001D400B0059400B0081400B0085
:10806C0085400B000000000043616C6C206F6E209B
:10807C0070757265207669727475616C004E6F2034
:10808C004368616E6765202D2043616E63656C6C7F
:10809C00696E6720434D440A007B226F6E223A744E
:1080AC007275652C22736174223A002C22627269FB
:1080BC00223A002C22687565223A007B226F6E22D0
:1080CC003A66616C73657D0053656E64696E6720FA
:1080DC00436F6D6D616E6420746F20487565005040
:1080EC005554202F6170692F002F6C696768747369
:1080FC002F002F737461746520485454502F312E07
:10810C0031006B6565702D616C69766500486F7325
:10811C00743A2000436F6E74656E742D4C656E67F7
:10812C0074683A2000436F6E74656E742D547970C8
:10813C00653A20746578742F706C61696E3B636866
:10814C0061727365743D5554462D380046726F6DDF
:10815C002048756500426173696320746573743AD5
:10816C0000496F544E6574776F726B007475726E44
:10817C00696E672070756D70206F66662025690AC0
:10818C0000424D4532383020617420616464726560
:10819C00737320307825303258206661696C6564C1
:1081AC0020746F2073746172740054656D70202597
:1081BC00302E31660A48756D6964697479202530F2
:1081CC002E31660A507265737375726520256630A0
:1081DC002E3100427574746F6E206973206E6F744B
:1081EC002070726573736564200A0064656661753E
:1081FC006C7420004D5342004C5342003C53504988
:10820C0053657474696E67732064656661756C740C
:10821C003E003C53504953657474696E6773202556
:10822C00732575202573204D4F444525753E000060
:10823C000000000000000000D1460B00BF460B0000
:10824C00C1460B000000000000000000AD520B0006
:10825C003D530B00A9590B0095630B00B1520B0059
:10826C00C1560B0039510B00C94F0B007F570B0047
:10827C001D580B0053580B006F580B0000000000EA
:10828C00003E5B4F5B3E3E6B4F6B3E1C3E7C3E1C90
:10829C00183C7E3C181C577D571C1C5E7F5E1C00D6
:1082AC00183C1800FFE7C3E7FF0018241800FFE78D
:1082BC00DBE7FF30483A060E2629792926407F0550
:1082CC000507407F05253F5A3CE73C5A7F3E1C1C66
:1082DC0008081C1C3E7F14227F22145F5F005F5F26
:1082EC0006097F017F006689956A60606060609412
:1082FC00A2FFA29408047E040810207E2010080817
:10830C002A1C08081C2A08081E101010100C1E0C21
:10831C001E0C30383E3830060E3E0E0600000000B3
:10832C000000005F00000007000700147F147F149A
:10833C00242A7F2A122313086462364956205000DF
:10834C0008070300001C2241000041221C002A1CCB
:10835C007F1C2A08083E08080080703000080808B6
:10836C000808000060600020100804023E514945D6
:10837C003E00427F400072494949462141494D33F4
:10838C001814127F1027454545393C4A494931415B
:10839C00211109073649494936464949291E000029
:1083AC00140000004034000000081422411414147E
:1083BC001414004122140802015909063E415D596A
:1083CC004E7C1211127C7F494949363E4141412273
:1083DC007F4141413E7F494949417F090909013E9D
:1083EC00414151737F0808087F00417F41002040C4
:1083FC00413F017F081422417F404040407F021CD6
:10840C00027F7F0408107F3E4141413E7F090909EC
:10841C00063E4151215E7F091929462649494932B8
:10842C0003017F01033F4040403F1F2040201F3F7E
:10843C004038403F63140814630304780403615903
:10844C00494D43007F414141020408102000414145
:10845C00417F0402010204404040404000030708F1
:10846C000020545478407F284444383844444428ED
:10847C00384444287F385454541800087E09021894
:10848C00A4A49C787F0804047800447D400020401C
:10849C00403D007F1028440000417F40007C047860
:1084AC0004787C080404783844444438FC182424A8
:1084BC001818242418FC7C08040408485454542428
:1084CC0004043F44243C4040207C1C2040201C3CA5
:1084DC004030403C44281028444C9090907C44649C
:1084EC00544C44000836410000007700000041362F
:1084FC00080002010204023C2623263C1EA1A161B5
:10850C00123A4040207A38545455592155557941E6
:10851C002154547841215554784020545579400CBD
:10852C001E5272123955555559395454545939559E
:10853C005454580000457C410002457D42000145E1
:10854C007C40F0292429F0F0282528F07C5455454E
:10855C00002054547C547C0A097F493249494932E1
:10856C003248484832324A4848303A4141217A3AF6
:10857C0042402078009DA0A07D39444444393D40C0
:10858C0040403D3C24FF2424487E4943662B2FFC6D
:10859C002F2BFF0929F620C0887E0903205454791B
:1085AC00410000447D413048484A32384040227AEC
:1085BC00007A0A0A727D0D19317D2629292F282669
:1085CC002929292630484D40203808080808080871
:1085DC000808382F10C8ACBA2F102834FA00007BCA
:1085EC00000008142A142222142A1408AA00550088
:1085FC00AAAA55AA55AA000000FF00101010FF00EF
:10860C00141414FF001010FF00FF1010F010F014E1
:10861C001414FC001414F700FF0000FF00FF1414E6
:10862C00F404FC141417101F10101F101F14141432
:10863C001F00101010F0000000001F101010101F71
:10864C0010101010F010000000FF1010101010107F
:10865C00101010FF10000000FF140000FF00FF00BE
:10866C00001F10170000FC04F41414171017141436
:10867C00F404F40000FF00F714141414141414F789
:10868C0000F7141414171410101F101F141414F4E2
:10869C00141010F010F000001F101F0000001F1429
:1086AC00000000FC140000F010F01010FF10FF147C
:1086BC001414FF141010101F00000000F010FFFF26
:1086CC00FFFFFFF0F0F0F0F0FFFFFF0000000000F4
:1086DC00FFFF0F0F0F0F0F38444438447C2A2A3EFB
:1086EC00147E02020606027E027E02635549416335
:1086FC003844443C04407E201E2006027E0202992F
:10870C00A5E7A5991C2A492A1C4C7201724C304AC7
:10871C004D4D303048784830BC625A463D3E494950
:10872C0049007E0101017E2A2A2A2A2A44445F44F8
:10873C004440514A444040444A51400000FF010328
:10874C00E080FF000008086B6B08361236243606F2
:10875C000F090F0600001818000000101000304020
:10876C00FF0101001F01011E00191D1712003C3CE6
:10877C003C3C000000000000000000000000000075
:10878C000000000000000000A9590B0095630B00CD
:10879C00A1400B00C1560B00E7570B0003580B0010
:1087AC007F570B001D580B0053580B006F580B00D4
:1087BC0000000000000000002F600B0025600B0083
:1087CC001B600B0011600B0005600B00F95F0B00C8
:1087DC0051700B0059700B00ED5F0B00E55F0B0047
:1087EC00DB5F0B00D15F0B0089700B0000081018C9
:1087FC00202830380000000000000000617070007C
:10880C0025592D256D2D25645425483A254D3A259D
:10881C0053257A0061736374696D65000000000074
:10882C000000000029660B0019660B001B660B008C
:10883C0000000000000000003B670B00A3670B006A
:10884C0079670B0095630B006B670B003D670B00A2
:10885C004D670B009D670B005D670B0035670B00C8
:10886C00000000000000000045680B00B1680B0020
:10887C0089680B0095630B0059680B0075680B0039
:10888C0067680B0083680B0047680B004B680B0094
:10889C000000000000000000E9680B0033690B00C9
:1088AC000B690B00EB680B0013690B001B690B00C9
:1088BC0023690B002B690B00776972696E67007274
:1088CC00656376206572726F72203D20256400000E
:1088DC000000000000000000816A0B00A56A0B007C
:1088EC008F6F0B00B36A0B00856A0B000000000051
:1088FC0000000000E5400B0019410B00FD690B0066
:10890C00176A0B00256E0B00416A0B009B6C0B0069
:10891C00756A0B002D6D0B006D6B0B00C96C0B0099
:10892C00D96E0B00696C0B00776A0B00296A0B007F
:10893C00B96A0B004D6B0B0000000000000000003A
:10894C00F36F0B00E96F0B00DF6F0B00956F0B00E3
:10895C00D36F0B00C76F0B0051700B0059700B00DD
:10896C00BB6F0B00B36F0B00A96F0B009F6F0B005D
:10897C0089700B00000000000000000011700B005B
:10898C001B700B0025700B002F700B0039700B0047
:10899C0045700B0051700B0059700B0061700B008F
:1089AC006D700B0075700B007F700B0089700B00E5
:1089BC0000537431395F53705F6D616B655F736821
:1089CC00617265645F74616700000000188A0B00B7
:1089DC00BD890B00788A0B00EC890B009C8A0B007C
:1089EC004E31305F5F637878616269763131375F21
:1089FC005F636C6173735F747970655F696E666FCA
:108A0C004500000000000000E0890B00FD730B0026
:108A1C0011740B00A5750B00A5750B007B740B0076
:108A2C00BD730B0063740B0025740B00EF730B000C
:108A3C00788A0B00488A0B00E0890B004E31305FBE
:108A4C005F637878616269763132305F5F73695F3A
:108A5C00636C6173735F747970655F696E666F4583
:108A6C0000000000000000003C8A0B00A5740B0005
:108A7C00B9740B00A5750B00A5750B007B740B006E
:108A8C00BD730B0079750B0005750B00CD740B00D5
:108A9C00188A0B00A48A0B00537439747970655FC3
:108AAC00696E666F005245454E54206D616C6C6F5B
:108ABC006320737563636565646564002F6D6E7404
:108ACC002F776F726B73706163652F776F726B7337
:108ADC00706163652F4743432D31302D706970658C
:108AEC006C696E652F6A656E6B696E732D474343B7
:108AFC002D31302D706970656C696E652D34385F61
:108B0C0032303230313132345F3136303631383008
:108B1C003634312F7372632F6E65776C69622F6EEA
:108B2C0065776C69622F6C6962632F7374646C690E
:108B3C00622F72616E642E6300000000A1430B0073
:108B4C0039600B00B1620B0085630B00A9640B004C
:108B5C00B9640B00D5640B00FD6F0B0061710B0049
:048B6C000000000005
:108B7000040000001400000003000000474E5500F0
:108B80003459EC136046B05E3946392102D51FAC2A
:048B9000348AA889F2
:088B940074F0FF7F01000000F6
:048B9C0000000000D5
:108BA000C8AF0000E45700008CB900008813000033
:108BB00050C300001027000002000000000103075E
:108BC0000F1F3F7F0080C0E0F0F8FCFE00000000B7
:108BD0000000000000000000000000000000000095
:108BE0000000000000000000000000000000000085
:108BF0000000000000000000000000000000000075
:108C000000000000000000000000008080800000E4
:108C1000000000000000000000000000008080C094
:108C2000C000000000000000000000000000000084
:108C30000000000000000000000000000000000034
:108C40000000000000000000000000000000000024
:108C50000000000000000000000000000000000014
:108C600080C0E0F0F8FCF8E0000000000000000028
:108C700000000000000000000080808080800080F4
:108C80008000000000808080808000FFFFFF0000E7
:108C900000008080808000008080000080FFFF80D6
:108CA0008000808000808080800080800000000044
:108CB00000808000008C8E84000080F8F8F880002E
:108CC000000000000000000000000000F0F0F0F0E4
:108CD000F0F0F0F0F0F0F0F0E0E0C08000E0FCFE3A
:108CE000FFFFFF7FFFFFFFFFFF000000000000000D
:108CF00000000000000000FEFFC70101010183FF2A
:108D0000FF00007CFEC70101010183FFFFFF003867
:108D1000FEC78301010183C7FFFF000001FFFF01C0
:108D20000100FFFF0701010100007FFF800000003C
:108D3000FFFF7F0000FFFFFF000001FFFFFF0100BA
:108D4000000000000000000000000000030F3F7F53
:108D50007FFFFFFFFFFFFFFFE7C7C78F8F9FBFFFAB
:108D6000FFC3C0F0FFFFFFFFFFFCFCFCFCFCFCFCB2
:108D7000FCF8F8F0F0E0C000010303030303010373
:108D800003000000000103030303010103010000CD
:108D900000010303030301010303000000030300B8
:108DA00000000303000000000000000103030303B0
:108DB00003010000000103010000000303010000A3
:108DC0000000000000000000000000000000008023
:108DD000C0E0F0F9FFFFFFFFFF3F1F0F87C7F7FF5E
:108DE000FF1F1F3DFCF8F8F8F87C7DFFFFFFFFFF39
:108DF000FFFFFF7F3F0F0700303000000000000042
:108E00000000000000000000000000000000000062
:108E1000FEFEFC000000000000000000000000005A
:108E2000000000000000000000E0C00000000000A2
:108E300000000000000030300000000000000000D2
:108E400000000000000000000000000000C0FEFF65
:108E5000FFFFFFFFFFFFFFFF7F7F3F1F0F071F7F0A
:108E6000FFFFF8F8FFFFFFFFFFFEF8E00000000142
:108E70000000000000000000FEFE000000FCFEFC00
:108E80000C06060EFCF80000F0F81C0E0606060C98
:108E9000FFFFFF0000FEFE00000000FCFEFC0018CB
:108EA0003C7E66E6CE84000006FFFF0606FCFEFC64
:108EB0000C0606060000FEFE0000C0F8FC4E46460A
:108EC000464E7C7840183C76E6CECC800000000010
:108ED0000000000000000000000000000000000092
:108EE00001070F1F1F3F3F3F3F1F0F030000000000
:108EF00000000000000000000F0F0000000F0F0F27
:108F0000000000000F0F000003070E0C18180C06DD
:108F10000F0F0F0000010F0E0C180C0F07010004BB
:108F20000E0C180C0F070000000F0F00000F0F0FA2
:108F30000000000000000F0F00000007070C0C18D5
:108F40001C0C060600040E0C180C0F070000000095
:108F50000000000000000000000000000000000011
:108F60000000000000000000000000000000000001
:108F700000000000000000000000000000000000F1
:108F800000000000000000000000000000000000E1
:108F900000000000000000000000000000000000D1
:108FA00000000000000000000000000000000000C1
:108FB00000000000000000000000000000000000B1
:108FC00000000000000000000000000020880B00EE
:108FD0003CE503200000000000000000000000004D
:108FE0000000000000000000000000000000000081
:108FF0000000000000000000000000000000000071
:109000000000000000000000000000000000000060
:109010000000000000000000000000000000000050
:109020000000000000000000000000000000000040
:0890300000000000ECE7032042
:10903800FFFFFFFF00000102030405060708090AF5
:109048000B0C0D0E0F101112131415161718191AF0
:089058001B1C1D1E1F20280037
:0490600078563412F8
:04000003B000401CED
:00000001FF
