:02000002B0004C
:1040000000400B00C0BB0B00000006000C000502C6
:084010000401A60F00000000EE
:0440180070A40B0085
:1040200009480A49884208B505D0094A824202D0A7
:10403000121A04F04EFA0748074A0021121A04F037
:1040400070FA014808BD00BFE8DE0320A8B50B00E8
:10405000D8E40320D8E40320EDE7032070B5074E31
:10406000074C02F02FFDA41BA4080025AC4200D190
:1040700070BD56F8043B98470135F7E75CB50B0077
:1040800080B50B0000F030B808B500F065F9BDE868
:10409000084002F0CFBC02F00FBA02F00DBA02F0F5
:1040A00013BA000008B5034A03490C2002F060F976
:1040B000FEE700BF31600B0084A40B000078B0FA6B
:1040C00080F0400970470123037070470EB403B5B8
:1040D00003AB002153F8042B019302F026FC02B03D
:1040E0005DF804EB03B0704738B502F00DFE4FF4F5
:1040F000165102F0F9FD002001F0B2FF43F69825B9
:104100000446002001F0ACFF001B61F10001A84251
:1041100071F1000307D202F0F7FD02F0E9FD10B9DA
:1041200002F0BAF9EDE702F0EFFD2F4D02F0E0FDED
:1041300000231A461946686802F06EF90023686881
:1041400019461A4602F048F92848762100F003FF84
:1041500000226868114602F047F904460028F7D1AA
:1041600002F0D2FD2249FFF7B1FF02F0CDFD214957
:10417000FFF7ACFF204801F0B1FE20491E4801F0D6
:1041800075FD3C221E48022101F094F91D4B1C488C
:10419000197801F017FC1A4801F0C0F84FF47A7052
:1041A00002F006FC1648012101F002FC012114482E
:1041B00001F003FC124801F00DF91348052100F04D
:1041C0000FFA01210C2003F09BFA02F09DFD0F492C
:1041D000FFF77CFF2146032003F092FA01F038FF3D
:1041E0000B4B186038BD00BF18E70320F8E403202C
:1041F00092AD0B0099A40B00A0E503203CE5032041
:1042000078E50320ACE6032074E603209CA40B00B1
:1042100074E5032038B5114D01F01AFF2B68C01A60
:104220000F4B98424FF0000415D902F06DFD0D4977
:10423000FFF74CFF0C48012101F0ADFD044638B9F1
:1042400002F062FD0949FFF741FF074801F0FAFC5F
:1042500001F0FEFE2860204638BD00BFF4E40320D4
:10426000400D0300A8A40B00A0E50320B7A40B0099
:1042700008B500210C2003F054FA41F2883002F016
:1042800097FB0649064800F07DFA02F03DFD05491E
:104290000C22FFF71BFF012008BD00BF00F8FFFF45
:1042A00074E60320C7A40B0008B54FF40061094869
:1042B00000F068FA41F2883002F07AFB01210C200C
:1042C00003F02FFA02F020FD03490C22FFF7FEFE57
:1042D000002008BD74E60320DCA40B002DE9F041AA
:1042E000184801F083FB58BB02F00EFD1649154E2D
:1042F000DFF86080154F02F0DDFA124801F0EEFDA4
:104300000446C0B102F000FD21460546304601F0EA
:104310008BFC414602462846FFF7D8FE02F0F4FC2B
:104320003946FFF7D3FE304601F08CFC41F288306D
:1043300002F03EFBE1E702F0E7FC0549FFF7C6FEAD
:10434000BDE8F081A0E50320F0A40B0016A50B004A
:1043500040A50B0007A50B00F0B585B0FFF7BEFF29
:10436000FFF758FF574F584E6421384601F099FC2B
:10437000B8B1B042F8D1701D04F0A8F851EC100BA0
:1043800004F030F8514D286002F0BEFC0446286865
:1043900003F016FD02460B4620464D49FFF796FEF8
:1043A000E2E74A4C94ED007AF7EE007AB4EE677AD1
:1043B000F1EE10FA03D10121072003F0B2F9D4ED98
:1043C000007AF5EE407AF1EE10FA03D100210720D1
:1043D00003F0A7F93F48404C00F01AFDF3EE0C7AC9
:1043E000B4EEE70AF1EE10FA84ED000A5ADB4FF45E
:1043F00000613A4800F0C6F901210C2003F091F960
:1044000002F082FC76223649364DFFF75FFE3148D6
:1044100000F0CEFC2F4885ED000A00F0F9FC84ED99
:10442000000A02F071FC0646286803F0C9FC024647
:104430000B462068CDE9022303F0C2FCDDE902232C
:10444000CDE9000128493046FFF740FE286803F017
:10445000B7FC02460B462068CDE9022303F0B0FC0E
:10446000DDE90223CDE900011F492048FFF72EFEB8
:104470001E4800F0AFFF4FF47A7002F099FA1B4823
:1044800000F0A8FF1A4B1B6893B1FFF70DFF41F234
:10449000883002F08DFA02F037FC1649FFF716FE5D
:1044A00005B0F0BD14490D4800F06CF90021A4E7F7
:1044B000FFF7DEFE41F2883002F07AFA02F024FCC7
:1044C0000E49EBE7A0E503203CE50320B0E603201E
:1044D00051A50B00F8E403209CE5032074E60320BB
:1044E00055A50B00B4E603207EA50B0078E503205C
:1044F000E8DE032099A50B0000F8FFFFACA50B0038
:1045000037B5194D194C284602F0B8FF184B0093E7
:104510001849194B40F25B72204601F001FB174B22
:1045200023602146164A1748C4F8D050002301F0F2
:104530002CFD2146144A1548002301F02BFD0623CB
:104540000522CDE900324FF400610723082210480C
:1045500000F024F803210F4800F0CAFE0E4803B013
:10456000BDE8304000F080B9D8E40320A0E5032086
:10457000DDA50B00CDA50B00C4A50B0000AC0B0006
:10458000FEA50B00A0E6032018A60B003CE50320C7
:1045900074E6032078E50320F8E4032038B5C0E989
:1045A0000523049BC3610446059B03620025056146
:1045B00005608562816090B2012103F0A1F8208B33
:1045C000012103F09DF8A08B012103F099F8208CC4
:1045D000012103F095F804236562E360204638BDAD
:1045E0008268034B93FBF2F393FBF1F14160704758
:1045F0000087930338B5C368022B04460D460DD1DE
:1046000003290BD8DFE801F00213151B0021A08A53
:1046100003F087F80121208B03F083F8E368042B73
:104620001FD1032D1DD8DFE805F00C2A303E0121F3
:10463000EDE70121A08A03F074F80021EBE70021E7
:10464000F8E70121A08A03F06CF80021208B03F029
:1046500068F80121A08B03F064F80021208C03F09E
:1046600060F8E368052B40F08C80092D00F289800A
:10467000DFE805F01F2937495F6167717F850021F9
:10468000A08A03F04EF80121E0E70021A08A03F0A0
:1046900048F80121208B03F044F80021A08B03F09F
:1046A00040F80121DAE70121A08A03F03AF800215D
:1046B000F0E70021A08A03F034F80121208B03F0F9
:1046C00030F8012108E0A08A002103F02AF8012136
:1046D000208B03F026F80021A08B03F022F80021A4
:1046E0000CE0A08A002103F01CF8208B012103F0CC
:1046F00018F80021A08B03F014F80121208C03F09E
:1047000010F8012110E00021A08A03F00AF801212D
:10471000208B03F006F80021A08B03F002F80121A2
:10472000208C02F0FEFF0021A08CBDE8384002F092
:10473000F8BF0121E8E70121A08A02F0F2FF002181
:10474000E6E7A08A012102F0ECFF0021208B02F0B5
:10475000E8FF0121E0E7A08A012102F0E2FF208BBF
:10476000002102F0DEFF0121A08B02F0DAFF002120
:10477000D6E70121A08A02F0D4FF00219EE70021A4
:10478000F8E738BDF8B5002981EAE1750446A5EBE4
:10479000E17524DD0123236000270A2685B301F09B
:1047A0004FFCA36A6268C31A9342F7D32268236955
:1047B000A062012A16D1A2680133934208BF3B468A
:1047C0002361D4E90331052B05F1FF3510D191FBAD
:1047D000F6F306FB13112046FFF70CFFDEE7DBD0F4
:1047E0000023D8E70BB9A36823612369013BE7E7FE
:1047F0004B4203F0030301F0030158BF5942EAE7BB
:10480000F8BD704710B510210446FFF748FC20465C
:1048100010BD000073B5044608462279A36832B182
:10482000A3B90B4902B0BDE8704002F043B8094A91
:10483000267B094D0949647B012E18BF2946CDE925
:1048400000140749FFF742FC02B070BD054AEFE7CC
:1048500044A60B009BA40B0040A60B003CA60B003B
:104860005AA60B0033A60B004FF0FF3303617047CD
:1048700013B50B4C2178BFF35B8F11F001010BD105
:1048800020460191FFF71AFC019928B1054801F073
:104890008FFE2046FFF717FC024802B010BD00BF94
:1048A000B8E60320BCE6032008B5FFF7E1FFBDE84A
:1048B000084001F0C3BE07B50190FFF7D9FF019989
:1048C00003B05DF804EB01F0D3BE2DE9F04190F99F
:1048D0001330013305460F4606D1FFF7C9FF3946AD
:1048E000BDE8F04101F08ABF002407264FF001081F
:1048F00095F91300002180B202F013FF95F9110021
:1049000008FA06F1394080B202F00BFF95F9130066
:10491000012180B202F005FF95F91200640080B217
:10492000E4B202F017FF08B144F00104013EDFD207
:104930002046BDE8F08100007FB590F910300133CA
:1049400004460E46154613D10179006802F0D0FAEC
:104950002068036831469B689847206803682946A9
:104960009B689847206804B0BDE8704002F0CBBA5D
:1049700090F9133001330CD1164B009300238DF8BE
:104980000430154B029368460123ADF80C30FFF755
:1049900092FF94F91000002180B202F0C2FE06F0EE
:1049A0007F012046FFF791FF29462046FFF78DFF44
:1049B00094F91000012180B202F0B3FE94F9133093
:1049C000013304D104B0BDE87040FFF76DBF04B0FF
:1049D00070BD00BF80A60B0020A10700F8B5DB006A
:1049E00002F0070203F03803134343EA81139DF8F2
:1049F000186080F83C3090F840309DF81C509DF8CD
:104A0000207066F3471380F84030ED0090F838309E
:104A100007F0070705F0380523F03F033D43044640
:104A20001D4380F8385006F00702F221FFF784FF9B
:104A300094F83820C2F3C20302F007019B0043EA56
:104A4000411343EAD2122046F521FFF775FF94F88F
:104A50003C20C2F3C20302F007019B0043EA41136A
:104A600043EA92122046F421BDE8F840FFF764BF04
:104A700030B590F91030013385B004460D4618D199
:104A80000179006802F034FA2068036829469B68BF
:104A90009847206802F037FA21792068012202F055
:104AA00024FA206803685B699847C5B2284605B0B8
:104AB00030BD90F9133001330CD1154B0093002316
:104AC0008DF80430134B029368460123ADF80C3087
:104AD000FFF7F1FE94F91000002180B202F021FEF0
:104AE00045F080012046FFF7F0FE00212046FFF749
:104AF000ECFE054694F91000012180B202F011FE8F
:104B000094F913300133D1D1FFF7CEFECEE700BFC9
:104B100080A60B0020A1070008B5F321FFF7A8FF2E
:104B200000F0010008BD000030B590F910300133ED
:104B300085B004460D461FD10179006802F0D8F90E
:104B40002068036829469B689847206802F0DBF9D3
:104B500021792068022202F0C8F9206803685B69A5
:104B600098470546206803685B69984740EA052036
:104B700085B2284605B030BD90F9133001330CD111
:104B8000184B009300238DF80430174B02936846AE
:104B90000123ADF80C30FFF78EFE94F910000021D0
:104BA00080B202F0BEFD45F080012046FFF78DFE89
:104BB00000212046FFF789FE002105462046FFF729
:104BC00084FE40EA052085B294F91000012180B2EC
:104BD00002F0A7FD94F913300133CAD1FFF764FE48
:104BE000C7E700BF80A60B0020A1070008B5FFF7AC
:104BF0009BFF40BA80B208BD38B588210446FFF754
:104C0000F5FF8A21A0822046FFF7F0FF8C21E08289
:104C10002046FFF7EBFF8E2120832046FFF7E6FFBB
:104C2000902160832046FFF7E1FF9221A083204678
:104C3000FFF7DCFF9421E0832046FFF7D7FF9621A2
:104C400020842046FFF7D2FF982160842046FFF79A
:104C5000CDFF9A21A0842046FFF7C8FF9C21E08465
:104C60002046FFF7C3FF9E2120852046FFF7BEFFA9
:104C7000A12160852046FFF7FBFEE12184F82C008E
:104C80002046FFF7B3FFE321E0852046FFF7F0FE63
:104C9000E42184F830002046FFF7EAFEE5210546CE
:104CA0002046FFF7E5FE00F00F0343EA051060869B
:104CB000E6212046FFF7DCFEE52105462046FFF70A
:104CC000D7FEC0F3071343EA0510A086E72120466C
:104CD000FFF7CEFE84F8360038BD000030B590F9FD
:104CE0001030013385B004460D4623D101790068A8
:104CF00002F0FEF82068036829469B689847206800
:104D000002F001F921792068032202F0EEF8206810
:104D100003685B6998470502206803685B699847E8
:104D200028430502206803685B69984705432846C5
:104D300005B030BD90F9133001330CD11A4B0093FC
:104D400000238DF80430194B029368460123ADF817
:104D50000C30FFF7B0FD94F91000002180B202F092
:104D6000E0FC45F080012046FFF7AFFD0021204622
:104D7000FFF7ABFD002105022046FFF7A6FD284303
:104D8000050200212046FFF7A0FD054394F910001D
:104D9000012180B202F0C5FC94F913300133C6D171
:104DA000FFF782FDC3E700BF80A60B0020A107002C
:104DB00010B5FA210446FFF791FFB0F5000F1FD0A0
:104DC000A18A9FED117A4B00C1EB2022C3EBE011C9
:104DD000B4F91630594302FB02F3B4F918201B133F
:104DE00053439B1303EBE123E36003EB8303803323
:104DF0001B1207EE903AF8EEE77A87EE870A10BDAD
:104E00009FED020AFBE700BF0000C8420000C07F20
:104E100038B50446FFF7CCFFFD212046FFF784FE9E
:104E2000B0F5004F38D0E168B4F93420A1F59635DB
:104E3000B4F932100905C1EB803305FB123303F5D9
:104E40008043DA1394F8303094F936106B43DB1258
:104E50006943891203F500434B439B12B4F92E10AA
:104E600003F500134B4303F500539B135343DA132D
:104E700094F82C105243D2114A43A3EB221323EA95
:104E8000E373B3F1C85FA8BF4FF0C8531B1300EE24
:104E9000103ABAEECB0A38BD9FED010AFBE700BF1E
:104EA0000000C07F30B5044690F91000421C85B068
:104EB00019D1206801F0EAFFD0212046FFF7D8FD84
:104EC0006028A06045D12046B622E021FFF734FDDE
:104ED0004FF4967001F06CFD2046FFF71DFE05466D
:104EE00028B36420F6E7012180B202F01AFC94F99D
:104EF0001000012180B202F003FC94F91300431C5E
:104F000004D1FFF7B5FC01F05DFBD5E7012180B2CC
:104F100002F0F6FB94F91100012180B202F0F0FBDF
:104F200094F91200002180B202F0EAFBC4E72046A7
:104F3000FFF762FE052300931A4603212046CDE9C0
:104F40000155FFF74BFD642001F032FD012005B053
:104F500030BD0020FBE710B50171044602F08AFC69
:104F600020602046BDE81040FFF79CBFF0B5457EAD
:104F7000BDF81440022D69D0032D00F09980012D59
:104F80006CD10589D2432A4412B2002A5DDBB0F904
:104F90000850954259DD0029BEBF5B181BB20021A5
:104FA000B0F90A00CD188542C4BF431A1BB2002BCA
:104FB0004BDDC1F3C400DFF820C102EBC01211F0D9
:104FC0000701DBB20CEB02001AD0C1F10805404E1C
:104FD000EDB2AB42775D3FBFA5EB030EFF2646FA6D
:104FE0000EF637401CF80260012C0CBF3E43BE4356
:104FF000AB420CF8026028D308390B44DBB2803096
:10500000072B19D9012C4FF0FF3518BF0025EDB241
:1050100000F180011A46083AD2B2072A01F8805CF2
:1050200001F18001F7D8A3F10802C2F3C4020132F2
:1050300000EBC21003F007033BB1264AD25C0378B1
:10504000012C0CBF134393430370F0BD4589D24339
:105050002A44CD180189491B12B209B2002AF4DB97
:10506000B0F90A509542F0DD0029BEBF5B181BB2B3
:105070000021B0F90870CE18BE42C4BF6B1A1BB233
:10508000002BE2DDD010802510FB051112480144F1
:1050900002F0070001228240012CD2B20B440CD155
:1050A0008B42D2D011F8010B104301F8010CF7E745
:1050B000CD184189491B09B267E7D243D2B28B426E
:1050C000C3D011F8010B104001F8010CF7E700BF45
:1050D000F4DE0320ECDE0320FCDE0320F0B5457E89
:1050E000BDF81440022D34D0032D00F09B80012D1B
:1050F00037D1D5180289521B12B20029C0F2918013
:10510000B0F90A508D4240F38C80002ABEBF9B1834
:105110001BB20022B0F90870D618BE42C4BFAB1A49
:105120001BB2002B7DDDC810802510FB05224548F1
:10513000024401F0070001218140012CC9B213444F
:1051400075D19A426DD012F8010B084302F8010C98
:10515000F7E70589C9432944D5184289521B09B28A
:1051600012B200295DDBB0F908508D4259DD002AEA
:10517000BEBF9B181BB20022B0F90A00D5188542A9
:10518000C4BF831A1BB2002B4BDDC2F3C400DFF88F
:10519000B4C001EBC01112F00702DBB20CEB01004E
:1051A0001AD0C2F10805284EEDB2AB42775D3FBF81
:1051B000A5EB030EFF2646FA0EF637401CF80160F9
:1051C000012C0CBF3E43BE43AB420CF8016028D318
:1051D000083A1344DBB28030072B19D9012C4FF069
:1051E000FF3518BF0025EDB200F180011A46083ADC
:1051F000D2B2072A01F8805C01F18001F7D8A3F14F
:105200000802C2F3C402013200EBC21003F007032C
:105210003BB10E4AD25C0378012C0CBF134393437D
:105220000370F0BD4589C943294409B265E7C94304
:10523000C9B29A42F5D012F8010B084002F8010CED
:10524000F7E700BFFCDE0320F4DE0320ECDE0320E2
:1052500070470000F8B50D1E064614461F462DDBAC
:1052600000F0BEFBA84229DD002C27DB304600F011
:10527000BAFBA04222DD304600F0A2FB02281ED07D
:10528000032825D0012804D13389E2431A442C464F
:1052900015B2002C2246B8BFE21DD210802112FBAD
:1052A00001550E49012204F007044B5702FA04F499
:1052B00064B297420CBF2343A3434B55F8BD3189D9
:1052C00072890139E4434D1B14442DB224B2E0E746
:1052D0007389013B5B1B25461CB2DAE7FCDE032029
:1052E00010B524210446FEF7DAFE204610BD00006A
:1052F00038B5402204460D46802100F08BFA064B5B
:105300002360FF2384F8213063774FF6FF73E38334
:1053100084F82050204638BD94A60B0002484FF474
:105320008062002103F0FDB8FCDE032007B590F891
:10533000223043B10191FFF79BFA019903B05DF868
:1053400004EB01F05BBA0B46817F407F012203B082
:105350005DF804EB02F011BA38B590F91D30013355
:1053600004460D461DD090F92100012180B202F0C3
:10537000D8F994F91F00002180B202F0D2F994F913
:105380002100002180B202F0CCF929462046FFF727
:10539000CDFF94F921000121BDE8384080B202F030
:1053A000C0B902F067FA94F91B1001F0A5FD02F0F4
:1053B00061FA036800219B68984702F05BFA036872
:1053C00029469B68984702F055FABDE8384001F03D
:1053D0009ABD0000F8B521210446FFF7BDFF00216A
:1053E0002046FFF7B9FF7F212046FFF7B5FF2221B6
:1053F0002046FFF7B1FF00212046FFF7ADFF072150
:105400002046FFF7A9FF94F91D30294F01332AD018
:1054100094F92100012180B202F083F994F91F0070
:10542000012180B202F07DF994F92100002180B2BF
:1054300002F077F9012000F0FBFD4FF48065013D9B
:1054400017F8011B2046ADB2FFF770FF002DF6D113
:10545000012000F0EDFD94F921000121BDE8F840A4
:1054600080B202F05EB9002502F004FA94F91B1034
:1054700001F042FD02F0FEF9036840219B68984765
:1054800005F11006B6B202F0F5F90368795D9B6884
:1054900098476B1C9DB2AE42F5D102F0EBF901F0DA
:1054A00032FDB6F5806F00D1F8BD3546DCE700BFB0
:1054B000FCDE032038B590F91D3001770133044636
:1054C0000D46C27600F0C98090F91F00012180B21C
:1054D00002F016F994F92100012180B202F010F9CE
:1054E00094F82230002B00F0A68094F921000121CD
:1054F00080B202F016F9FFF7BBF9012101F076F84E
:10550000FFF7B6F9102101F053F9FFF7B1F90021C7
:1055100001F080F8FFF7ACF901F054F894F920009D
:10552000012180B202F0ECF894F92000012180B250
:1055300002F0F7F8012001F03BFA94F92000002175
:1055400080B202F0EEF80A2001F032FA94F920005D
:10555000012180B202F0E5F82046AE21FFF7FCFE03
:105560002046D521FFF7F8FE20468021FFF7F4FE04
:105570002046A821FFF7F0FE20463F21FFF7ECFE72
:105580002046D321FFF7E8FE20460021FFF7E4FE86
:1055900020464021FFF7E0FE8D212046FFF7DCFE8C
:1055A000012D0CBF102114212046FFF7D5FE204607
:1055B0002021FFF7D1FE20460021FFF7CDFE204637
:1055C000A121FFF7C9FE2046C821FFF7C5FE2046EE
:1055D000DA21FFF7C1FE20461221FFF7BDFE81212F
:1055E0002046FFF7B9FE012D0CBF9F21CF21204699
:1055F000FFF7B2FED9212046FFF7AEFE012D0CBF0A
:105600002221F1212046FFF7A7FE2046DB21FFF7EC
:10561000A3FE20464021FFF79FFE2046A421FFF76E
:105620009BFE2046A621FFF797FE2046AF21BDE84E
:105630003840FFF791BE94F91D00012180B202F0BD
:105640005FF894F91E00012180B202F059F894F835
:105650002230002B3FF462AF47E702F00BF901F074
:1056600015FC5BE72DE9F04F85B01F46BDF938808A
:10567000BDF83C30A8EB0209A7EB010AB9F1000F15
:10568000B8BFC9F10009BAF1000FB8BFCAF1000AEA
:10569000D14583460C46154604DD3A462C4647461E
:1056A0000D469046BC4205DD2A46454690462246B8
:1056B0003C4617463E1BB2B20092A8EB050282EAB6
:1056C000E271A1EBE271C6F3C03202FA86F64545FB
:1056D000B4BF01224FF0FF32019176100292BC421A
:1056E0001CDCDBF800200393D145D2F81080C7BF43
:1056F000294622462A4621465846C047019A039B1E
:10570000B61AB1B236B2002E05DA029A1544009AE2
:1057100056182DB236B2013424B2E0E705B0BDE828
:10572000F08F2DE9F347BDF82C800768BDF928906C
:10573000CDF800800446FF6916468A461D46B847E4
:105740002368CDF8008009F1FF323244DF69514609
:105750002B46204612B2B8472368CDF800809F69D7
:1057600032464B4651462046B8476B1E03EB0A01B2
:105770002368CDF828809D6932464B4609B2204601
:10578000AC4602B0BDE8F047604737B5013B134473
:105790000468BDF8185001951BB2009364690B466C
:1057A000A04703B030BD37B5BDF818500468CDE947
:1057B0000025013B0B4464691BB2A04703B030BD18
:1057C0002DE9F347BDF92890BDF82C800546924697
:1057D0000C46CE18B4420BDA2B68CDF800809F69D6
:1057E00021464B46524628460134B84724B2F1E7D9
:1057F00002B0BDE8F08713B502680191B0F90E1050
:105800000091546AB0F90C3000221146A04702B052
:1058100010BD704730B54281C2814FF0FF32002485
:10582000054D42610122446005600181818104616E
:105830000283827630BD00BFC8AB0B002DE9F04F6C
:105840002DED028B8DB007460491BDF860100591D7
:10585000BDF864100691B0F90C1004989DF86850DA
:10586000814252DDB7F90E1091424EDD062111FB47
:105870000504002C49DD02EBC504002C45DD03EBDB
:1058800083030B9393B2079308339BB208910024D0
:105890000993052C1CBF2C4B0B9A079E16BF1B1996
:1058A00000239B5C0393049AABB20A9304FB05F3B9
:1058B00013FA82F31BB204EB020A08EE103AB04668
:1058C0000FFA85F90FFA8AFA039BDB072FD5012D12
:1058D0003B681FD1D3F810B0059B32B25146384611
:1058E000D847039B5B0803930A9B01369844099BA6
:1058F000B6B2B3421FFA88F8E6D1089B013B0134E7
:1059000013F0FF0364B20893C3D10DB0BDEC028B5A
:10591000BDE8F08F059ACDE9009218EE101AD3F881
:1059200024B00FFA88F24B463846D847D9E7DDE96C
:1059300005239342D5D0012D3B6803D1D3F810B095
:10594000069BCAE7069AE6E7C4A60B0030B50A290B
:1059500085B0044607D1027E638A03EBC2036382EB
:105960000023238221E00D291FD0037E0293C38AE6
:105970000193838A0093B0F912200B46B0F91010FE
:10598000FFF75CFF207E238A00EB400103EB41031D
:10599000A17E1BB20246238239B1B4F90C106FF01C
:1059A000050505FB00118B42D6DC012005B030BD9A
:1059B000012938BF012101767047C1828182704779
:1059C000407E704701F00303B0F90A204376C9070F
:1059D000B0F9083059BF8381C2818281C381704789
:1059E000B0F90C007047B0F90E00704708B5D0F858
:1059F000D00003681B6B9847003818BF012008BD12
:105A0000F8B506460F461446C4B1D6F8D000036870
:105A10001B6B984708B90020F8BDD6F8D000FA2CC7
:105A200003682546A8BFFA25DB682A463946984709
:105A300083B2E41A9D42A4B2E6D0ECE70120EBE782
:105A400070472DE9F8430646884691461F461D4695
:105A50000024D6F8D00003681B6B9847D0B1002D06
:105A600018DBD6F8D00003681B69984760B1D6F8F8
:105A7000D00003685B69984708F804000134A4B2B9
:105A80004C4507D03D46ECE70A3D0A202DB200F018
:105A90008FFFDEE72046BDE8F88370B5044600F1CD
:105AA000220596220021284602F03BFD6168284627
:105AB00002F078FDD4F8D0002289036829465E6A96
:105AC0000023B047003818BF012070BD10B5D421A5
:105AD0000446FEF7E4FA204610BD10B50446D0F89F
:105AE000D00003681B6B984720B1D4F8D00003683E
:105AF000DB6A9847012010BD13B5044608460191A2
:105B000002F058FDC0F3072323706070A31C84B219
:105B100001992246184602F08BFD204402B010BDC8
:105B200030B502810A4A0B4DC0E90323039B436150
:105B30000023C0E90051C0E92F33C0E93133C0E987
:105B40000633C0F8CC300384A0F8B83030BD00BFB5
:105B50009BA40B0004AE0B002DE9F74F164602681C
:105B60001BB297690193012205460C46B847C7B29C
:105B7000012F019B03D0002003B0BDE8F08F04F19A
:105B8000010804F1050A4FF000092A680193D2F8D0
:105B900018B0414601222846D847C0B20128EAD1B0
:105BA00018F8012B02F07F01C24501FB07994FEA6B
:105BB000C717E0D012F0800F019BE6D1A8EB0404D8
:105BC000A7B2341B2A68013C4C45D2F818A03DBF4F
:105BD00006F1FF32D21B92B21FFA89F241462846E3
:105BE000D047C0B2384480B2C6E700002DE9F0418A
:105BF000DFF8308005460C4616461F463B46962287
:105C000021462846FFF7A8FF48B12378B6EB131FBB
:105C100005D001F079F8414600F05FFEEEE7BDE8FF
:105C2000F08100BF1CAC0B000231C9B209299ABF38
:105C3000024B53F821000248704700BF20AE0B0012
:105C40002DAC0B0010B5E02380F822300146002374
:105C500080F8233051F8223B04465B6902229847C2
:105C6000236820461B69BDE81040184700F1BC02BC
:105C700030B5134600F1D00453F8045B8D4209D0CF
:105C8000A342F9D1002352F8044B2CB900EB830056
:105C9000C0F8BC10012003E00133052BF3D1002034
:105CA00030BD2DE9F04F00F122098BB285B096226C
:105CB00049460546FFF750FF0646F0B195F82570B6
:105CC000009705F1BC0A4FF0000805F1260B5AF8C1
:105CD000044B6CB121680191084602F06BFCB8429C
:105CE00006D101993A46584602F06CFC002848D08B
:105CF00008F10108B8F1050FE9D100203EE0EA19EA
:105D000092F8260092F827A04AEA002A14220021DD
:105D1000601D02F006FC009BC3F57F44FC34264462
:105D200005EB8808A6EB0B06B6B2152ED8F8BC001A
:105D300007F1040128BF132659443246494405306F
:105D400002F0D5FBD8F8BC305E8395F8223003F022
:105D50000603022B10D18DF80D304FEA1A238DF86F
:105D60000E302B688DF80FA040228DF80C205B6957
:105D7000042203A928469847D8F8BC0005B0BDE81E
:105D8000F08F95F822B00BF0060BBBF1020FB6D0E6
:105D900082468346BAE72DE9F84304460D464FF0A4
:105DA000000800F122074FF0C009E5B1236884F82C
:105DB000229084F823805B69022239462046984766
:105DC000064668B14FF4FA730D2239462046FFF7B4
:105DD0000DFF94F82230D02B02D13046BDE8F88375
:105DE000013DEDB2E1E72E46F7E7000038B5054684
:105DF0000846102300F8023B0C462949FFF77CFEB9
:105E00000423037002234370AB698BB11B787BB111
:105E10000623437095F82030012B39D10E234370AF
:105E200095F82130012B02BF437843F020034370E3
:105E30002B691B781BB1437863F07F0343706B6958
:105E40001B781BB1437843F04003437001238370F8
:105E50002C23C370E9680B78F3B10430FFF74CFED4
:105E6000A96931B10B7823B1FFF746FEE969FFF765
:105E700043FE29690B780BB1FFF73EFE69690B7889
:105E80000BB1FFF739FE001BC0B2831E637038BD33
:105E9000022BC5D11E23C2E7037143710630DFE731
:105EA0003BAC0B0038B51D4682230B70B0F8B83000
:105EB0001B0A8B70B0F8B830CB70B0F8B8300C4615
:105EC0000133A0F8B8301146201DFFF715FE00F889
:105ED000015B001BC0B2831E637038BD2DE9F04129
:105EE0000368DB680446984700284BD004F122057C
:105EF00029462046FFF77AFF236882B25B6929466C
:105F00002046984700283DD041F2707396222946DA
:105F10002046FFF721FEC0B2042833D1638CB3F5CD
:105F2000087F2FD194F8250010B140B2BDE8F08170
:105F300004F1BC0704F1D00857F8043BF3B1032681
:105F400057F8042C2946137912682046FFF7AAFF58
:105F5000236882B25B6929462046984790B14FF486
:105F6000FA73092229462046FFF740FE30B9013E68
:105F700016F0FF06E4D16FF00100D7E7B845DBD19A
:105F80000020D3E74FF0FF30D0E710B5C0E9001292
:105F9000037210BD10B503710023C0E90833C0E9D6
:105FA0000A33416302604383C361036310BD000091
:105FB00008B5024B1B689B68019308BD680203008B
:105FC00008B5024B1B68DB68019308BD680203003B
:105FD00008B5024B1B689B68019308BD2C020300A7
:105FE00008B5024B1B68DB68019308BD2C02030057
:105FF00008B5024B1B681B69019308BD2C02030006
:1060000008B5024B1B685B69019308BD2C020300B5
:1060100008B5024B1B685B69019308BD6C02030065
:1060200008B5024B1B685B68019308BD18020300AA
:1060300008B5024B1B68DB68019308BD180203001A
:1060400008B5024B1B681B69019308BD18020300C9
:1060500008B5024B1B685B69019308BD1802030079
:1060600008B5024B1B68DB6D019308BD18020300E5
:1060700008B5024B1B685B6C019308BD4802030026
:1060800008B5024B1B685B69019308BD64020300FD
:1060900008B5024B1B681B6A019308BD640203002C
:1060A00008B5024B1B689B6A019308BD640203009C
:1060B00008B5024B1B68DB68019308BD3C02030076
:1060C00008B5024B1B681B69019308BD3C02030025
:1060D00008B5024B1B685B69019308BD3C020300D5
:1060E00008B5024B1B689B69019308BD3C02030085
:1060F00008B5024B1B68DB69019308BD3C02030035
:1061000008B5024B1B681B6A019308BD3C020300E3
:1061100008B5024B1B689B6A019308BD3C02030053
:1061200008B5024B1B681B6C019308BD3C020300C1
:1061300008B5024B1B68DB68019308BD2802030009
:1061400008B5024B1B689B69019308BD2802030038
:1061500008B5024B1B68DB69019308BD28020300E8
:1061600008B5024B1B681B6A019308BD2802030097
:1061700008B5024B1B685B6A019308BD2802030047
:1061800008B5024B1B689B6A019308BD28020300F7
:1061900008B5024B1B68DB6A019308BD28020300A7
:1061A00008B5024B1B681B6B019308BD2802030056
:1061B00008B5024B1B685B6B019308BD2802030006
:1061C00008B5024B1B681B6C019308BD2802030035
:1061D00008B5024B1B681B6D019308BD2802030024
:1061E00008B5024B1B689B69019308BD3802030088
:1061F00008B5024B1B68DB69019308BD3802030038
:1062000008B5024B1B681B6A019308BD38020300E6
:1062100008B5024B1B689B6A019308BD3802030056
:1062200008B5024B1B681B6B019308BD38020300C5
:1062300008B5024B1B689B6B019308BD3802030035
:1062400008B5024B1B681B68019308BD30020300B0
:1062500008B5024B1B689B68019308BD3002030020
:1062600008B5024B1B68DB68019308BD30020300D0
:1062700008B5024B1B681B69019308BD300203007F
:1062800008B5024B1B685B69019308BD300203002F
:1062900008B5024B1B68DB69019308BD300203009F
:1062A00008B5024B1B681B6A019308BD300203004E
:1062B00008B5024B1B685B6A019308BD30020300FE
:1062C00008B5024B1B68DB6B019308BD300203006D
:1062D00008B5024B1B681B6C019308BD300203001C
:1062E00008B5024B1B685B6C019308BD30020300CC
:1062F00008B5024B1B681B68019308BD4C020300E4
:1063000008B5024B1B685B68019308BD4C02030093
:1063100008B5024B1B681B69019308BD4C020300C2
:1063200008B5024B1B685B69019308BD4C02030072
:1063300008B5024B1B689B69019308BD4C02030022
:1063400008B5024B1B68DB69019308BD4C020300D2
:1063500008B5024B1B681B6A019308BD4C02030081
:1063600008B5024B1B689B6A019308BD4C020300F1
:1063700008B5024B1B685B6B019308BD600203000C
:1063800008B5024B1B681B6D019308BD600203003A
:1063900008B5024B1B685B68019308BD200203002F
:1063A00008B5024B1B685B69019308BD200203001E
:1063B00008B5034B1B68D3F88830019308BD000073
:1063C0002002030008B5034B1B68D3F894300193F7
:1063D00008BD00002002030008B5024B1B685B6883
:1063E000019308BD4002030008B5024B1B689B687F
:1063F000019308BD4002030008B5024B1B68DB682F
:10640000019308BD4002030008B5024B1B681B69DD
:10641000019308BD4002030008B5024B1B685B698D
:10642000019308BD4002030008B5024B1B689B693D
:10643000019308BD4002030008B5024B1B68DB69ED
:10644000019308BD4002030008B5024B1B681B6A9C
:10645000019308BD4002030008B5024B1B681B6B8B
:10646000019308BD4002030008B5024B1B685B6B3B
:10647000019308BD4002030008B5024B1B681B6C6A
:10648000019308BD4002030008B5024B1B685B6C1A
:10649000019308BD4002030008B5024B1B689B68CE
:1064A000019308BD4402030008B5024B1B68DB6B77
:1064B000019308BD4402030008B5024B1B681B682A
:1064C000019308BD1C02030008B5024B1B685B6802
:1064D000019308BD1C02030008B5024B1B685B6AF0
:1064E000019308BD1C02030008B5024B1B681B6B1F
:1064F000019308BD1C02030008B5024B1B68DB6B4F
:10650000019308BD1C02030008B5024B1B681B6CFD
:10651000019308BD1C02030008B5024B1B685B6CAD
:10652000019308BD1C020300002240681146FFF7DA
:106530008BBF002240681146FFF796BF40680022DB
:10654000FFF78ABF4068002281F00101FFF774BFA6
:10655000002340681A461946FFF766BF00234068CB
:106560001A461946FFF758BF002240681146FFF748
:106570004BBF002240681146FFF736BF406800223B
:106580000221FFF739BF002340681A46FFF724BFF6
:10659000024B03225A60024A1A607047C4E6032085
:1065A00050AE0B000021FFF79BBE0021FFF790BE0D
:1065B00010B5044608462170FFF76AFE00236360A9
:1065C000204610BD13B504460078FFF7EEFF58B91A
:1065D000207801904FF6FF71FFF732FE019802B06C
:1065E000BDE81040FFF7DEBF02B010BD13B5044692
:1065F00000780191FFF7D9FF019948B920780190FF
:10660000FFF726FE019802B0BDE81040FFF7CABFB1
:1066100002B010BD13B5044600780191FFF7C5FF25
:10662000019948B920780190FFF71AFE019802B04D
:10663000BDE81040FFF7B6BF02B010BD0078FFF70D
:10664000B1BF0000400830B51860002418688842C7
:10665000E5B206D90134082C02D040081860F5E7ED
:106660000725024B5B5D137030BD00BF84AE0B008D
:106670002DE9F04306468FB000780C46FFF795FFF2
:1066800000281BDB35781422002109A801F049FFFE
:106690000B23002209A92846ADF82430FFF708FE95
:1066A0009DF82D3013B19DF82C5055B10027B946F7
:1066B000B846012523795DB1C3B100200FB0BDE814
:1066C000F083DDF830809DF834909DF83570F1E767
:1066D000002B35D1A368434508D18DF820908DF863
:1066E0002170BDF82020A3899A42E6D00023A1683A
:1066F0008DF80F300A9804AB0DF10F02FFF7A2FFDF
:10670000217985B989B9A36843450ED38DF82090C6
:106710008DF82170BDF82020A3899A4205D1049BF1
:10672000434502D1C9E70029F9D100230193637BD6
:1067300000939DF80F20237B3078FFF7C1FDBCE765
:10674000CDE900552B462A460121F5E72DE9F04118
:1067500088B000230446007802930E461746FFF7E0
:1067600024FF054600BB94F800800146142203A8CC
:1067700001F0D7FE0B232A4603A94046ADF80C30A2
:10678000FFF796FD04988DF8075002AB0DF1070254
:1067900007FB06F1FFF756FF20789DF80710FFF77B
:1067A00067FD2078FFF7FEFE029808B0BDE8F08193
:1067B00038B5044600780D46FFF7F7FE0346D0B91A
:1067C000616899B10C4A12F8010B854202D001337D
:1067D000082BF8D10133DBB20122D9402046FFF764
:1067E000B5FF2078BDE83840FFF7DCBE20782946A9
:1067F000FFF73EFDF5E738BD84AE0B0008B5007825
:10680000FFF73EFDC0B208BD054B02221A60054BE2
:10681000054A9A600020C3E90000FFF7B9BD00BF38
:10682000D8E60320CCE603200000FFFF10B5436844
:10683000013B0446436063B903689B689847A368BB
:10684000013BA3602BB923682046DB68BDE81040FC
:10685000184710BD024800230360FFF709BC00BFC2
:10686000DCE60320F8B506460D468F180024BD422D
:106870000CD0336815F8011B9B6830469847031EFF
:1068800001DB1C44F3E7002C08BF1C462046F8BD82
:1068900013B50446084659B1019101F08BFE2368F7
:1068A0000199DB680246204602B0BDE81040184757
:1068B00002B010BD08B5FFF7EBFF08BD03689B6889
:1068C000184738B50D210546FFF7F8FF0A210446A1
:1068D0002846FFF7F3FF204438BD38B50546FFF7DB
:1068E000D7FF04462846FFF7ECFF204438BD30B5FB
:1068F0008BB00023012A8DF8243098BF0A2209ACFE
:106900000D46B1FBF2F101FB125303F0FF03092B1B
:1069100094BF30333733DBB2AA4204F8013DEFD9DC
:106920002146FFF7B5FF0BB030BD2DE9F04186B031
:1069300000AF05460E46381D142114463B60FFF794
:10694000CBFD13280ED8391D2846FFF7A1FF0446BA
:106950001EB12846FFF7B5FF044420461837BD4650
:10696000BDE8F08100F1080323F00703E846ADEB32
:10697000030D2246411C3B686846FFF7ADFD6946A2
:106980002846FFF785FF0446C546E1E7014B024A6A
:106990001A607047E0E6032094AE0B00024B1A68C1
:1069A000024B1A60704700BFFCE20320E4E60320BC
:1069B0000021FFF7F5BC000010B5044B036004464E
:1069C000806908B1FFF732FF204610BD8CAF0B0085
:1069D00010B50446FFF7F0FF20461C21FDF75FFBD2
:1069E000204610BD014B00229A607047E8E6032064
:1069F000014B1860704700BF00E3032008B50B4B44
:106A000043B100F081F903681B699847002801DD54
:106A1000AFF30080064B43B100F0ECFE03681B6946
:106A20009847002801DDAFF3008008BD000000009A
:106A30000000000008B5FFF7E1FFFFF709FB014B7D
:106A4000186008BD40E703200548064A064908B516
:106A5000121A01F03EFD054B054A1A6008BD00BF41
:106A600000F4032004F40320A4B50B0000F4032079
:106A70001E1C279A07B5002300931A466FF0770172
:106A8000FFF7A0FC03B05DF804FB000007B54388E6
:106A90000A2B08D0502B0BD1094B1B684BB103B00C
:106AA0005DF804EB1847FFF7E5FF03B05DF804FB62
:106AB000002300931A466FF07701FFF783FCF4E799
:106AC000FCE6032010B512480021FFF725FD114B0D
:106AD0001A68114B9A42114B0CBF012200221A7006
:106AE00001D0FFF7B1FFFFF79BFA044601F022FD4A
:106AF0000B4B13B12046AFF3008000210848FFF78D
:106B0000D3FCBDE8104007480021FFF751BC00BF8F
:106B1000F1690B0000F403201E1C279AF8E60320FD
:106B2000000000008D6A0B00704710B51821044664
:106B3000FDF7B5FA204610BDF0B5037D062B8DB0EC
:106B40000E4600F104074FF0000412D000F10805D2
:106B500015F8011D0A223046FFF7C9FEAF42044472
:106B600019D0002CF4D02E213046FFF7A7FE0444A4
:106B7000EEE72F236A4639460A208DF80040FFF7DA
:106B80007FFA684601F016FD33680246DB68694605
:106B900030469847044620460DB0F0BD10B5054B71
:106BA0000446112240F8043B002101F0BAFC2046C3
:106BB00010BD00BFBCAE0B000346074A10B543F83A
:106BC000042B01F1100251F8044B43F8044B91429D
:106BD000F9D10A781A7010BDBCAE0B00037D042BEE
:106BE00004D14068003818BF01207047062B07D138
:106BF00043683BB983682BB9C3681BB90069F1E7E7
:106C0000002070470120704710B59DF8084044EA05
:106C1000032343EA024242EA01610423416003750F
:106C200010BD000007B5064B0360CB7800938B784E
:106C30004A780978FFF7E8FF03B05DF804FB00BF6E
:106C4000BCAE0B00417470477047704708B5002117
:106C5000007CFFF76DFB40EAE07008BD08B501213C
:106C6000007CFFF765FB40EAE07008BD08B5007CDA
:106C7000FFF756FB20EAE07008BD08B5007CFFF77F
:106C800047FB20EAE07008BD13B50446007C019183
:106C9000FFF746FB0028019901DC607C20B1207CD5
:106CA000FFF74EFB20EAE07002B010BD007CFFF75A
:106CB0004FBB10B514210446FDF7F1F9204610BD75
:106CC00010B54FF47A73044608460021C4E9011355
:106CD000044B23600123207463741146FFF708FB03
:106CE000204610BDD0AE0B00007C0022FFF708BB91
:106CF000007CFFF735BB10B514220446002101F0DB
:106D000010FC204610BD000010B50F4C88B003A841
:106D1000FFF7F1FF2178BFF35B8F11F001010FD175
:106D200020460191FDF7CAF9019948B103AA074825
:106D3000FFF7C6FF2046FDF7C6F9054801F0C0FB86
:106D4000024808B010BD00BF00E7032004E703209D
:106D5000496C0B0070474174704708B5007CFFF721
:106D6000D7F920EAE07008BD08B5007CFFF7A8F964
:106D700020EAE07008BD08B5007CFFF7B1F940EAF1
:106D8000E07008BD08B5007CFFF7A2F940EAE070AA
:106D900008BD007CFFF7ACB937B5457C04462DB182
:106DA000207C03B0BDE83040FFF782B9007C019140
:106DB000FFF7AEF900280199F2DC284603B030BD98
:106DC00010B514210446FDF76AF9204610BD0000F5
:106DD00010B54FF47A730446084611460022C4E900
:106DE0000123044B2360012320746374FFF798F997
:106DF000204610BD00AF0B007047F8B5064615469B
:106E00000C468F18BC4206D0336814F8011B9B68EF
:106E100030469847F6E72846F8BD007C0022FFF789
:106E20009FB9007C0021FFF7A3B9007C0021FFF788
:106E3000A7B9007C0021FFF7ABB9007C0021FFF768
:106E4000AFB910B514210446FDF729F9204610BD4D
:106E500038B5044615464FF47A730022C4E901237D
:106E6000094B2174084623602946FFF7A9F9BF3072
:106E700008D16B69DB0705D56868FFF725FBE86873
:106E8000FFF722FB204638BD30AF0B000023007C0B
:106E90001A461946FFF74CB97FB500221423CDE9F5
:106EA0000122ADF804300B788DF808304B6803935D
:106EB000CB680493007C0B7A059301A9FFF788F94E
:106EC00007B05DF804FB1FB5003B8DF800104FF0D4
:106ED0006401039118BF0123694601928DF80830BF
:106EE000FFF7DAFF05B05DF804FB0123FFF7EBBF06
:106EF000007C0022FFF724B9C9B2FFF7F9BF007C7C
:106F00000022FFF725B90121FFF7F9BF13B5036888
:106F10008DF80710DC6B01224FF0FF330DF10701F4
:106F2000A04702B010BD10B40368DC6B4FF0FF3314
:106F3000A4465DF8044B604713B5134602688DF80C
:106F40000710D46B0DF107010122A04702B010BD5C
:106F500010B54369B3F88620B3F884309A420446EA
:106F600008D06369B3F88420511CA3F8841013443B
:106F7000187910BD03681B6998470028F1D14FF0BC
:106F8000FF30F6E7704743691868C043C00F704789
:106F900070470000064B994210B500F10C0405D073
:106FA000084600F08DFC002808BF0024204610BDD4
:106FB0008CAE0B0010B5AC210446FDF770F82046EE
:106FC00010BDAC21FDF76BB82DE9F0414FF0000882
:106FD00086B01C46C0F8048005460E46174641465A
:106FE000102202A801F09DFA631C09D04FF47A73B5
:106FF000B4FBF3F203FB1244CDE902285C43049492
:10700000686910230093006802AB41F2050240F664
:10701000FF71FFF7E5F8002807DAFFF76DFA03685C
:107020006B60002006B0BDE8F0816869002300684D
:107030003A463146FFF7F4F8031EEEDB1846F1E757
:1070400030B587B0044601AD6846FFF7EBFD0FCDC4
:1070500004340FC42B68237007B030BD70B54D6980
:10706000054B04468C3544F8043B06460FCD0FC44F
:107070002B682370304670BDBCAE0B002DE9F04389
:107080009846036893B00D460024DB6A064617460F
:10709000984728466B46224621460094FEF790FF0B
:1070A0000546002863D1009B002B4BD05B69002B69
:1070B00048D006A8FFF772FD009B5C696378022B3D
:1070C00004D1211D06A8FFF7BBFF26E00A2B24D11F
:1070D0001122294601A801F024FAA368002B38D018
:1070E00004F108030DF1040C18341868596862465D
:1070F00003C20833A3429446F7D1062301A90CA882
:107100008DF81430FFF758FD0DF1340CBCE80F007A
:1071100007AC0FC4DCF80030237006A8FFF75EFD53
:1071200080B1336807ADD3F82090124B0C930FCD8C
:107130000DAC0FC42B6823703A4643460CA9304669
:10714000C84705460098FEF733FF284613B0BDE850
:10715000F083E368002BC3D14FF6FF70D4F8109092
:10716000FEF796FF8145BBD104F11401AAE725463D
:10717000E8E700BFBCAE0B0038B543691A68002AC7
:10718000054610DAB3F88620B3F884309A420AD163
:1071900003681B699847044628B92B682846DB6AB0
:1071A0009847204638BD0120FCE710B54369B3F885
:1071B0008620B3F884309A42044605D06369B3F858
:1071C00084201344187910BD03681B699847002870
:1071D000F4D14FF0FF30F6E7F8B543691746B3F83E
:1071E0008620B3F884309A4205460E4616D0696967
:1071F000B1F88430B1F88640E41ABC4228BF3C465E
:10720000043322461944304601F063F96A69B2F842
:1072100084302344A2F884302046F8BD03681B69FB
:1072200098470028E3D14FF0FF34F5E74269002387
:10723000A2F884304269A2F8863070472DE9F04107
:107240001F4603680C46DB6A8AB005461646984717
:10725000237DD5F81480042B0CBF02200A200622BF
:107260000121FEF7E5FFC8F800006B691B68002BE1
:1072700008DA2B682846DB6A0024984720460AB0C3
:10728000BDE8F0812846FFF7D1FFB7B1002303A97D
:10729000F8B20393ADF81030FEF7BAFE0028E8D13B
:1072A000686906230093006803AB41F20B0240F6C5
:1072B000FF71FEF795FF0028DBD11C22002103A8F7
:1072C00001F02FF9237D042B1DD14FF407733046B5
:1072D000ADF80C30FEF7E4FEADF80E006068FEF786
:1072E000D7FE04906B691C22186803A9FEF788FF7B
:1072F0000028BED104340FCC6D698C350FC52368CE
:107300002B700124BAE740F61C233046ADF80C3050
:10731000FEF7C6FE05AEADF80E00231D04F11407FE
:1073200018685968324603C20833BB421646F7D183
:10733000D8E7000030B54269B2F886308BB0044619
:107340002BB1B2F884209A4201D1FFF76FFF616937
:107350000868002818DBB1F886507F2D14D8043156
:107360000823C5F180022944FEF752FF002813DDEF
:107370006369B3F886200AB9A3F884206369B3F877
:1073800086201044A3F886006369B3F88600B3F83A
:107390008430C01A0BB030BDFFF7AEF803680B2B7A
:1073A000F2D0FFF7A9F803680B2BEDD020230025BE
:1073B000CDE90235FFF7A0F803680193084B0949AE
:1073C000009302AA2B463220FEF7DAFF63691868A1
:1073D000FEF70EFF63694FF0FF321A60D4E700BF7B
:1073E00057AF0B0050AF0B0010B543690446186847
:1073F000002801DBFEF7FCFE63694FF0FF321A60E4
:107400006069112200218C3001F08BF82046BDE824
:107410001040FFF70BBF10B5002304460160C0F811
:1074200084308830FFF7BAFB204610BD73B50023C7
:107430004FF47A72C0E901320E4A0361026043617F
:107440000446AC200191FCF726FE051E05F10C0652
:1074500008D00123C5E90133074B01992B60304661
:10746000FFF7D9FF2046C4E90565FFF7DFFE02B04C
:1074700070BD00BF8CAF0B0070AF0B0010B54FF0AC
:10748000FF310446FFF7D2FF204610BD10B5044679
:107490000068002801DBFEF7ABFE204610BD0C3073
:1074A000FFF7F4BF002240681146FEF7ADBF00228F
:1074B00040681146FEF7C8BF002240681146FEF73B
:1074C000D3BF40680022FEF7C7BF4068002281F0AA
:1074D0000101FEF7B1BF002340681A461946FEF7C6
:1074E000A3BF002340681A461946FEF795BF002245
:1074F00040681146FEF778BF406800220221FEF77F
:107500007BBF002340681A46FEF766BF024B042289
:107510005A60024A1A60704718E70320D8AF0B0080
:10752000002340681A46FEF757BF40680022022138
:10753000FEF762BF002240681146FEF755BF0022E9
:1075400040681146FEF760BF002340681A4619469E
:10755000FEF762BF002340681A461946FEF764BF73
:1075600040680021FEF788BF40680021FEF78CBF0D
:107570004068002281F00101FEF75EBF40680022F2
:10758000FEF76ABF002240681146FEF76DBF002279
:1075900040681146FEF758BF2DE9F04395B01446F8
:1075A0000D460746FFF7FAFA00211C220DA80091AC
:1075B00000F0B7FF40230C9320466B460CAA002135
:1075C000FEF7FEFC044600284BD102460121686804
:1075D000FEF71AFF0221804622466868FEF714FF74
:1075E000009E81462146002E3BD0002939D1736888
:1075F000022B03D00A2B11D0F669F4E7B8F1000F83
:10760000FAD0716906A8043107ADFFF70BFB0FCD67
:107610003C1D0FC42B6823704146EDE7B9F1000F04
:10762000EAD07469102201A800F07BFF06238DF8D0
:10763000143001AD04F108031834186859682A465B
:1076400003C20833A3421546F7D101A906A807AD26
:10765000FFF7B2FA0FCD3C1D0FC42B6823704946CB
:10766000CAE70098FEF7A4FC384615B0BDE8F083E1
:10767000024B034A1A6000225A60704720E7032039
:1076800014B00B00232813B502D9002002B010BD9E
:10769000A0F10B03022B1AD8174C2178BFF35B8F94
:1076A00011F001010BD120460191FCF707FD019972
:1076B00028B11248FEF77CFF2046FCF704FD0F4B73
:1076C0001878FEF7EDFD0028DFD10120DEE7012864
:1076D00009D800F0CFF80021007CFEF769FD80F0AA
:1076E0000100C0B2D2E709380128EED800F082F8D4
:1076F000007CFEF705FDF2E7B8E60320BCE60320B8
:10770000232838B504460D460AD8FF2908D0FFF7CC
:10771000B9FF28B129462046BDE83840FEF758BCDD
:1077200038BD38B504460D46FEF75AFCFF2810D088
:10773000062804D84D2323FA00F0C30709D42046B5
:10774000FFF7A0FF28B129462046BDE83840FEF7E4
:107750004FBC38BD10B50446FEF742FC031FDBB238
:10776000012B08D92046FFF78DFF20B12046BDE848
:107770001040FEF745BC002010BD2DE9F0419046B9
:107780001F46072406460D46C4F10701B8F1000F55
:1077900012D147FA01F101F001013046FFF7C1FFB4
:1077A00001212846FFF7BDFF00212846FFF7B9FF5A
:1077B000013CE9D2BDE8F08147FA04F1EBE77047FC
:1077C00038B5044614252A46002100F0AAFE25807B
:1077D0004025074925812846258200F06FF8044995
:1077E0006060284600F06AF8E060204638BD00BFBF
:1077F00048B00B0030B50E4D2978BFF35B8F11F008
:10780000010487B011D12846FCF758FC68B101A8E3
:10781000FFF7D6FF01AA21460648FFF7D9FA284606
:10782000FCF751FC044800F04BFE024807B030BDA5
:1078300028E703202CE70320BF770B0070470000E8
:1078400038B50A4B036001230446436108492020F0
:1078500000F034F8202560600549A560284600F056
:107860002DF8C4E90305204638BD00BF180001000B
:1078700048B00B0030B50E4D2978BFF35B8F11F087
:10788000010487B011D12846FCF718FC68B168469E
:10789000FFF7D6FF6A4621460648FFF7D9FA284681
:1078A000FCF711FC044800F00BFE024807B030BDA5
:1078B00044E7032048E703203D780B00FCF7EDBBCD
:1078C000014900F0F9B800BF64B00B007FB5002497
:1078D0001023CDE90234036815469E6912686B4691
:1078E000CDE90044B0479DF8043003F00603062BB1
:1078F00003BF009B2B600120204604B070BD0098A0
:10790000904214BF012006207047000010B5034BC1
:107910000360044600F0CDF8204610BDA4B00B0073
:1079200010B50446FFF7F2FF20460821FCF7B7FB2D
:10793000204610BD2DE9F0411F46DDE90834DDF891
:10794000188098450646154607D1079900F0B4F807
:1079500018B165710020BDE8F0813946304600F06D
:10796000ABF80028F6D00123C4F800802571A3717C
:10797000F0E738B515461C4600F09EF820B1082304
:10798000E36006232560237138BD73B505460C46B8
:1079900001921E4600F090F850B9032E08D82368D3
:1079A000019A5B692946204602B0BDE8704018473D
:1079B00002B070BD10B5034B03600446FFF7A6FF8D
:1079C000204610BD04B10B0010B50446FFF7F2FFCE
:1079D00020460C21FCF763FB204610BDF7B5089F3D
:1079E000974205460E4614460AD0A86802680897D2
:1079F000156A31462246AC4603B0BDE8F040604708
:107A00001946019300F058F8019B0028EDD006209C
:107A100003B0F0BD2DE9F14F0D461946DDE90A4BE3
:107A2000DDE90CA681461746984600F045F890B16E
:107A3000002D3460377109DB61198A450CBF0621BE
:107A40000121B171002001B0BDE8F08F0235F9D1FC
:107A50000123B371F6E7544506D15946484600F074
:107A60002BF808B17771EDE7D9F808000368CDE984
:107A70000CA6CDE90A4BDC693A4643462946A446A2
:107A800001B0BDE8F04F60472DE9F04107460C46D4
:107A900015461E46FFF76DFF48B9B86803689F6931
:107AA0002A4633462146BC46BDE8F0416047BDE862
:107AB000F081704700207047814208B50ED04068C1
:107AC00003782A2B0CD049680B782A2B08BF013188
:107AD00000F05EFDB0FA80F0400908BD0120FCE72F
:107AE0000020FAE7000000009FED010B704700BF87
:107AF000000000000000F87F81F0004102E000BFBC
:107B000083F0004330B54FEA41044FEA430594EA5D
:107B1000050F08BF90EA020F1FBF54EA000C55EA98
:107B2000020C7FEA645C7FEA655C00F0E2804FEA69
:107B30005454D4EB5555B8BF6D420CDD2C4480EA4B
:107B4000020281EA030382EA000083EA010180EA7B
:107B5000020281EA0303362D88BF30BD11F0004FC9
:107B60004FEA01314FF4801C4CEA113102D04042FF
:107B700061EB410113F0004F4FEA03334CEA13333A
:107B800002D0524263EB430394EA050F00F0A78052
:107B9000A4F10104D5F1200E0DDB02FA0EFC22FA4D
:107BA00005F2801841F1000103FA0EF2801843FA41
:107BB00005F359410EE0A5F120050EF1200E012A32
:107BC00003FA0EFC28BF4CF0020C43FA05F3C01870
:107BD00051EBE37101F0004507D54FF0000EDCF1E9
:107BE000000C7EEB00006EEB0101B1F5801F1BD392
:107BF000B1F5001F0CD349085FEA30004FEA3C0C96
:107C000004F101044FEA445212F5800F80F09A808B
:107C1000BCF1004F08BF5FEA500C50F1000041EB8F
:107C2000045141EA050130BD5FEA4C0C404141EB93
:107C30000101013C28BFB1F5801FE9D291F0000F8E
:107C400004BF01460020B1FA81F308BF2033A3F13D
:107C50000B03B3F120020CDA0C3208DD02F1140C34
:107C6000C2F10C0201FA0CF021FA02F10CE002F16F
:107C70001402D8BFC2F1200C01FA02F120FA0CFC68
:107C8000DCBF41EA0C019040E41AA2BF01EB0451B1
:107C9000294330BD6FEA04041F3C1CDA0C340EDCAF
:107CA00004F11404C4F1200220FA04F001FA02F3F2
:107CB00040EA030021FA04F345EA030130BDC4F1B0
:107CC0000C04C4F1200220FA02F001FA04F340EAA5
:107CD0000300294630BD21FA04F0294630BD94F056
:107CE000000F83F4801306BF81F480110134013D3D
:107CF0004EE77FEA645C18BF7FEA655C29D094EAAE
:107D0000050F08BF90EA020F05D054EA000C04BF2B
:107D10001946104630BD91EA030F1EBF0021002016
:107D200030BD5FEA545C05D14000494128BF41F0B5
:107D3000004130BD14F580043CBF01F5801130BD19
:107D400001F0004545F0FE4141F470014FF00000A4
:107D500030BD7FEA645C1ABF194610467FEA655C55
:107D60001CBF0B46024650EA013406BF52EA0335F7
:107D700091EA030F41F4002130BD00BF90F0000FE5
:107D800004BF0021704730B54FF4806404F1320421
:107D90004FF000054FF0000150E700BF90F0000FDA
:107DA00004BF0021704730B54FF4806404F1320401
:107DB00010F0004548BF40424FF000013EE700BFD1
:107DC00042004FEAE2014FEA31014FEA02701FBF61
:107DD00012F07F4393F07F4F81F06051704732F093
:107DE0007F4208BF704793F07F4F04BF41F40021EA
:107DF000704730B54FF4607401F0004521F0004148
:107E00001CE700BF50EA010208BF704730B54FF0D1
:107E100000050AE050EA010208BF704730B511F0D2
:107E2000004502D5404261EB41014FF4806404F10A
:107E300032045FEA915C3FF4D8AE4FF003025FEA90
:107E4000DC0C18BF03325FEADC0C18BF033202EB14
:107E5000DC02C2F1200300FA03FC20FA02F001FA6E
:107E600003FE40EA0E0021FA02F11444BDE600BF11
:107E700070B54FF0FF0C4CF4E06C1CEA11541DBFC0
:107E80001CEA135594EA0C0F95EA0C0F00F0DEF88B
:107E90002C4481EA030621EA4C5123EA4C5350EA70
:107EA000013518BF52EA033541F4801143F48013C1
:107EB00038D0A0FB02CE4FF00005E1FB02E506F052
:107EC0000042E0FB03E54FF00006E1FB03569CF0A7
:107ED000000F18BF4EF0010EA4F1FF04B6F5007FAD
:107EE00064F5407404D25FEA4E0E6D4146EB06061F
:107EF00042EAC62141EA55514FEAC52040EA5E50A8
:107F00004FEACE2EB4F1FD0C88BFBCF5E06F1ED851
:107F1000BEF1004F08BF5FEA500E50F1000041EB88
:107F2000045170BD06F0004646EA010140EA020035
:107F300081EA0301B4EB5C04C2BFD4EB0C0541EA57
:107F4000045170BD41F480114FF0000E013C00F36C
:107F5000AB8014F1360FDEBF002001F0004170BD90
:107F6000C4F10004203C35DA0C341BDC04F11404A9
:107F7000C4F1200500FA05F320FA04F001FA05F235
:107F800040EA020001F0004221F0004110EBD37002
:107F900021FA04F642EB06015EEA430E08BF20EA2E
:107FA000D37070BDC4F10C04C4F1200500FA04F3D1
:107FB00020FA05F001FA04F240EA020001F0004163
:107FC00010EBD37041F100015EEA430E08BF20EAD6
:107FD000D37070BDC4F1200500FA05F24EEA020E1E
:107FE00020FA04F301FA05F243EA020321FA04F04D
:107FF00001F0004121FA04F220EA020000EBD37004
:108000005EEA430E08BF20EAD37070BD94F0000F03
:108010000FD101F00046400041EB010111F4801F37
:1080200008BF013CF7D041EA060195F0000F18BFE8
:10803000704703F00046520043EB030313F4801F24
:1080400008BF013DF7D043EA0603704794EA0C0FDE
:108050000CEA135518BF95EA0C0F0CD050EA4106F4
:1080600018BF52EA4306D1D181EA030101F0004171
:108070004FF0000070BD50EA410606BF1046194699
:1080800052EA430619D094EA0C0F02D150EA0136A5
:1080900013D195EA0C0F05D152EA03361CBF1046E6
:1080A00019460AD181EA030101F0004141F0FE4185
:1080B00041F470014FF0000070BD41F0FE4141F409
:1080C000780170BD70B54FF0FF0C4CF4E06C1CEA09
:1080D00011541DBF1CEA135594EA0C0F95EA0C0FBE
:1080E00000F0A7F8A4EB050481EA030E52EA033579
:1080F0004FEA013100F088804FEA03334FF080559A
:1081000045EA131343EA12634FEA022245EA1115C6
:1081100045EA10654FEA00260EF000419D4208BF77
:10812000964244F1FD0404F5407402D25B084FEA24
:108130003202B61A65EB03055B084FEA32024FF4D0
:1081400080104FF4002CB6EB020E75EB030E22BF2D
:10815000B61A754640EA0C005B084FEA3202B6EBED
:10816000020E75EB030E22BFB61A754640EA5C009C
:108170005B084FEA3202B6EB020E75EB030E22BF2C
:10818000B61A754640EA9C005B084FEA3202B6EB2D
:10819000020E75EB030E22BFB61A754640EADC00EC
:1081A00055EA060E18D04FEA051545EA16754FEA4E
:1081B00006164FEAC30343EA52734FEAC2025FEA6C
:1081C0001C1CC0D111F4801F0BD141EA00014FF0FB
:1081D00000004FF0004CB6E711F4801F04BF0143CC
:1081E0000020B4F1FD0C88BFBCF5E06F3FF6AFAEE8
:1081F000B5EB030C04BFB6EB020C5FEA500C50F178
:10820000000041EB045170BD0EF0004E4EEA1131FA
:1082100014EB5C04C2BFD4EB0C0541EA045170BD01
:1082200041F480114FF0000E013C90E645EA060E45
:108230008DE60CEA135594EA0C0F08BF95EA0C0F73
:108240003FF43BAF94EA0C0F0AD150EA01347FF4BB
:1082500034AF95EA0C0F7FF425AF104619462CE792
:1082600095EA0C0F06D152EA03353FF4FDAE1046F5
:10827000194622E750EA410618BF52EA43067FF446
:10828000C5AE50EA41047FF40DAF52EA43057FF4D6
:10829000EBAE12E74FF0FF3C06E000BF4FF0010CE1
:1082A00002E000BF4FF0010C4DF804CD4FEA410C45
:1082B0007FEA6C5C4FEA430C18BF7FEA6C5C1BD012
:1082C00001B050EA410C0CBF52EA430C91EA030F93
:1082D00002BF90EA020F0020704710F1000F91EAF0
:1082E000030F58BF994208BF90422CBFD8176FEABE
:1082F000E37040F0010070474FEA410C7FEA6C5C8C
:1083000002D150EA013C07D14FEA430C7FEA6C5C92
:10831000D6D152EA033CD3D05DF8040B704700BFBE
:108320008446104662468C461946634600E000BF0C
:1083300001B5FFF7B7FF002848BF10F1000F01BDDE
:108340004DF808EDFFF7F4FF0CBF012000205DF8A9
:1083500008FB00BF4DF808EDFFF7EAFF34BF01202E
:1083600000205DF808FB00BF4DF808EDFFF7E0FFC7
:1083700094BF012000205DF808FB00BF4DF808ED18
:10838000FFF7CEFF94BF012000205DF808FB00BF7F
:108390004DF808EDFFF7C4FF34BF012000205DF861
:1083A00008FB00BF4A0011D212F5001211D20DD500
:1083B0006FF47873B3EB62520ED44FEAC12343F0EB
:1083C000004343EA505323FA02F070474FF0000095
:1083D000704750EA013002D14FF0FF3070474FF044
:1083E000000070474FEA4102B2F1E04324BFB3F509
:1083F000001CDCF1FE5C0DD901F0004C4FEAC0021C
:108400004CEA5070B2F1004F40EB830008BF20F0FF
:108410000100704711F0804F21D113F13872BCBFB9
:1084200001F00040704741F480114FEA5252C2F10E
:108430001802C2F1200C10FA0CF320FA02F018BF57
:1084400040F001004FEAC1234FEAD32303FA0CFCAA
:1084500040EA0C0023FA02F34FEA4303CCE77FEA39
:10846000625307D150EA01331EBF4FF0FE4040F483
:108470004000704701F0004040F0FE4040F4000032
:10848000704700BFD0B50C4B002206460F46FFF7E1
:10849000EFFCFFF787FF0446FFF770FC074B002255
:1084A000FFF7E6FC02460B4630463946FFF728FB4D
:1084B000FFF778FF2146D0BD0000F03D0000F041FD
:1084C000002301461A46184600F0F4BE002100F0D1
:1084D000E5BE0A44914200F1FF3300D1704710B568
:1084E00011F8014B03F8014F9142F9D110BD8842B8
:1084F00010B501EB020402D98442234607D8431E7B
:10850000A14208D011F8012B03F8012FF8E702442B
:1085100001468A4200D110BD13F8014D02F8014D09
:10852000F7E702440346934200D1704703F8011B6A
:10853000F9E7000038B5104B1D68AB6B0446B3B9C2
:108540001820FDF7B9FF0246A86320B90B4B0C4871
:108550004221FDF7D9FF0B490B4BC0E900130B4B30
:1085600083600B23838100210120C2E90401AB6BEE
:1085700000221C615A6138BD00E303203DB10B00AD
:1085800054B10B000E33CDAB34126DE6ECDE0500BA
:1085900010F8012B11F8013B012A28BF9A42F7D0AD
:1085A000D01A7047034611F8012B03F8012B002A5B
:1085B000F9D17047034613F8012B002AFBD1181A92
:1085C0000138704770B50F4E04460A448A4201D103
:1085D000002013E014F8013B985D00F0030001282F
:1085E00011F8010B355C05F0030508BF2033012DA0
:1085F00008BF20301B1A02D10028E7D170BD1846F1
:10860000FCE700BF31B20B0010B57AB10346013967
:10861000841813F8010B11F8012F904201D1A342E5
:1086200001D1801A10BD0028F3D1FAE71046F9E70E
:1086300010B50139034632B111F8014F03F8014B6F
:10864000013A002CF7D11A440021934200D110BD09
:1086500003F8011BF9E770B504460D4645EC104BD5
:10866000164601F081FD51EC100B7EB1C5F30A53A3
:10867000C3F16B03002B09DD1B0503F17F550024BB
:1086800005F5401522462B46FFF7F2FB70BD0000B2
:108690002DE9F04F2DED028B9DB01F46002318935E
:1086A000A24B13921B680593044618468846FFF7B1
:1086B00081FF4FF0000A05464FF0000BCDF85C80BB
:1086C000179B1A782B2A4ED03BD80D2A34D8082A6B
:1086D00034D8002A3ED000230A93179E3378302BDB
:1086E00040F0B080737803F0DF03582B68D10A9B09
:1086F000019318AB029700938D4A19AB17A9204636
:1087000000F0A2FE10F00707054605D0062F2CD179
:108710000136002317960A93139B002B40F0908597
:108720000A9BEBB152460BF1004343EC102B1DB0FA
:10873000BDEC028BBDE8F08F202ACCD1013317931A
:10874000BEE72D2AC7D101220A925A1C17925B78E4
:10875000002BC2D1139BCDF85C80002B40F06E85BE
:1087600052465B46E1E70022EEE7189A3AB135211E
:108770001AA801F004FE1899204601F0C3F9013F40
:10878000042F06D8DFE807F00A0314170A00DDE912
:108790001AAB2807C0D54BF0004BBDE7DDE91AA3A3
:1087A000199A23F4801302F2334243EA025BF0E7A2
:1087B000DFF880B1EDE76FF0004B4FF0FF3AE8E7EC
:1087C000179B5A1C17925B78302BF9D0002BA3D043
:1087D00001234FF000090493179B0893CDF81C90D8
:1087E0004F460A2217980678A6F13003D9B2092914
:1087F0002AD905992A46FFF707FF98B30020324689
:108800003D4605900346652A01D0452A18D11DB979
:10881000049A02439ED00025DDF85C8008F1010235
:10882000179298F801202B2A75D02D2A7BD04FF073
:10883000000CA2F13001092940F28280CDF85C8061
:1088400000269DE00023C4E7082FD8BF079900F158
:108850000100DABF02FB0133079302FB093901373C
:108860001790BFE7179B5A1917925A5D002F37D000
:1088700005903D46A2F13003092B12D90123C2E72E
:10888000179B5A1C17925A780130302AF8D0A2F15F
:108890003103082B00F2D984179B05900020089320
:1088A0000546303A00F1010314D0059919440591A9
:1088B0002B4600EB050E0A21734513D12B18082B0C
:1088C00005F1010505441CDC07990A2303FB01237C
:1088D00007930023179A511C179152781846C9E73D
:1088E0003846D2E7082B04DC079E4E430796013337
:1088F000E2E703F1010CBCF1100FD8BF01FB09F94D
:10890000F5E7102DDCBF0A2303FB0929E1E700236B
:10891000059301237CE74FF0000C08F10202179247
:1089200098F8022085E74FF0010CF6E7C8B30B007A
:10893000E0B10B000000F07F179A511C179152789C
:10894000302AF9D0A2F1310108293FF679AFA2F11E
:10895000300E179A0692179A511C17915278A2F16D
:108960003006092E37D9069E891B082944F61F6652
:1089700002DC7645A8BF7646BCF1000F00D07642F7
:10898000002D4DD1049901437FF4C6AE002B7FF436
:10899000E1AE692A27D024DC492A24D04E2A7FF46C
:1089A000D9AE9F4917A800F0A7FF00283FF4D2AE28
:1089B000179B1B78282B2DD19A491AAA17A800F0CB
:1089C000AFFF052826D11B9BDDF868A043F0FF4BC5
:1089D0004BF4E00BA0E60A2101FB0E2EAEF1300EA7
:1089E000B9E76E2ADBE7904917A800F085FF002859
:1089F0003FF4B0AE179B8D49013B17A8179300F0C9
:108A00007BFF10B9179B01331793DFF830B24FF09B
:108A1000000A81E68648FFF767F85BEC10AB7BE65F
:108A2000059B0798F31A002F08BF2F46102D0693B9
:108A3000A846A8BF4FF01008FFF7A0F9092D8246FD
:108A40008B4613DD7B4B03EBC80353E91223FFF77F
:108A50000FFA824648468B46FFF790F902460B46CE
:108A600050465946FFF74EF882468B460F2D38DCAC
:108A7000069B002B3FF450AE24DD162B0BDC6D491A
:108A800001EBC301D1E9000152465B46FFF7F0F963
:108A900082468B4640E6069AC5F12503934220DBC9
:108AA000644CC5F10F0504EBC50152465B46D1E9A4
:108AB0000001FFF7DDF9069B5D1B04EBC504D4E95B
:108AC0000023E3E7069B16330BDB059B9E1B594BEC
:108AD00003EBC606D6E9002350465946FFF7F2FAE3
:108AE000D6E7069BA5EB08089844B8F1000F74DDA3
:108AF00018F00F030AD04F4901EBC30152465B4601
:108B0000D1E90001FFF7B4F982468B4638F00F082F
:108B10004FD0B8F59A7F22DD00252E4607950595A2
:108B20002223DFF818B123604FF0000A079B002BC7
:108B30003FF4F2AD1899204600F0E4FF0599204675
:108B400000F0E0FF3146204600F0DCFF07992046A8
:108B500000F0D8FF2946204600F0D4FFDCE5364B74
:108B6000049300234FEA2818504659469946B8F115
:108B7000010F21DC0BB182468B462F4BABF1547BAE
:108B800003EBC90952465B46D9E90001FFF770F9CA
:108B90002A4B0A460B402A498B428246BCD8A1F593
:108BA00080118B4286BFDFF89CB04FF0FF3A02F194
:108BB000547B0023049384E018F0010F05D0049B3C
:108BC000D3E90023FFF754F90123049A083209F18D
:108BD00001094FEA68080492C9E7EAD0C8F1000821
:108BE00018F00F020AD0134B03EBC203504659464C
:108BF000D3E90023FFF766FA82468B465FEA28181E
:108C0000D7D0B8F11F0F1FDD00252E46079505951B
:108C100022234FF0000A4FF0000B236086E700BFCD
:108C2000DAB10B00F4B10B00D1B10B00D4B10B00E1
:108C30009BA40B0088B40B0060B40B000000F07F15
:108C40000000A07CFFFFEF7F18F0100318BF6A231D
:108C5000DFF8AC93049350465946002318F0010FF7
:108C600004D0D9E90023FFF703F901235FEA68087C
:108C700009F10809F2D10BB182468B46049BC3B1BE
:108C8000CBF30A52C2F16B03002B594611DD1F2BA7
:108C900040F32481342BDEBFC2F14B024FF0FF338F
:108CA00003FA02F24FF0000ACCBF4FF05C7B02EAFD
:108CB000010B0022002350465946FFF741FB0028D4
:108CC000A2D1079B009308992B463A46204600F014
:108CD00081FF079000283FF41FAF059B9E1B069B5A
:108CE000002BB4BF334600230C93069B002523EAD8
:108CF000E37312932E46079B2046596800F0C2FE8C
:108D0000059000283FF40CAF079B1A69023203F16B
:108D10000C0192000C30FFF7DCFB4BEC10AB1AAAF5
:108D200019A9204601F09CFA4BEC18AB18900028CA
:108D30003FF4F6AE0121204600F0E6FF064600288B
:108D40003FF4EEAE199B0499002BABBF0C9A129A1C
:108D5000129FDDF83090ACBF03EB0209D71A1A9AC4
:108D6000A3EB01089044A14B08F1FF389845C2F1EC
:108D7000360280F2C780A3EB08031F2BA2EB03028D
:108D80004FF0010100F3B18001FA03F30D930023CA
:108D9000089309EB0208049BC14517441F444B4646
:108DA000A8BF4346BB42A8BF3B46002BC2BFA8EBAF
:108DB0000308FF1AA9EB03090C9B002B17DD3146B2
:108DC0001A46204601F060F8064600283FF4A8AE97
:108DD0000146189A204600F0ADFF0B9000283FF4A2
:108DE0009FAE1899204600F08DFE0B9B1893B8F1AA
:108DF000000F00F38C80069B002B08DD129A05996A
:108E0000204601F041F8059000283FF489AE002F7C
:108E100008DD05993A46204601F090F805900028B3
:108E20003FF47EAEB9F1000F08DD31464A462046D8
:108E300001F084F8064600283FF472AE059A1899AE
:108E4000204601F007F9054600283FF469AEC368E3
:108E50000B930023C360314601F0E0F8002860DA8C
:108E60000B9B53EA0A0340F08280CBF31303002BE1
:108E70007DD12BF000431B0D1B05B3F1D66F76D9C6
:108E80006B6913B92B69012B71DD2946012220463C
:108E900001F054F83146054601F0C0F8002866DDBF
:108EA0000499534A5B46002900F0818002EA0B01D5
:108EB000B1F1D66F7BDCB1F15C7F7FF7A9AE4D4B92
:108EC000504659460022FEF7D3FF0B46034308BF26
:108ED000222382468B4608BF23602BE64FF0FF32E9
:108EE00002FA03F303EA0A0AE3E6C8F17F4808F549
:108EF0007F0808F57B4808F1E20801FA08F30893B7
:108F00000D9146E70023089301230D9341E718993B
:108F10004246204601F012F8189000287FF46BAF0B
:108F2000FEE55F466ED10B9ACBF3130342B3324A90
:108F3000934228D1049B5146EBB12D4B3B40B3F1FA
:108F4000D46F4FF0FF3219D81B0DC3F16B0302FA37
:108F500003F3994217D1294B9F4202D101313FF4CB
:108F6000DFAD234B3B4003F5801B4FF0000A049B11
:108F7000002BA4D1DEE54FF0FF33EAE71346E8E724
:108F800053EA0A038CD0089BDBB13B42EFD00B9B2A
:108F9000049A50465946C3B1FFF75DFB02460B46A3
:108FA00051EC180BFEF7AEFD82468B46DFE713400F
:108FB000A3F580136FEA135B6FEA0B5B4FF0FF3A88
:108FC000D5E70D9B13EA0A0FE0E7FFF744FB0246E3
:108FD0000B4651EC180BFEF793FD0022002382464E
:108FE0008B46FFF7ADF90028C1D011E602FCFFFF68
:108FF0000000F07F00005039FFFF0F00FFFFEF7F00
:1090000008B20B003146284601F086F959EC108B66
:1090100010EE100A00224FF080434946FFF7A4F9F2
:1090200000287AD00B9B002B4AD0954B0022CDE92B
:109030000823DFF84C924FF00008924B3B400D9311
:109040000D9A914B9A4240F0B080DDE90801A7F1FA
:10905000547B4BEC10ABCDE9080101F085F8DDE95C
:10906000080153EC102BFEF703FF52465B46FEF758
:1090700049FD0B468349854A19409142824660D991
:1090800018EE903A02F15472934204D118EE103A5D
:1090900001333FF445ADDFF800B24FF0FF3A1899C5
:1090A000204600F02FFD0599204600F02BFD3146AB
:1090B000204600F027FD2946204600F023FD1AE651
:1090C000BAF1000F1BD1CBF31303F3B96C4B0022A1
:1090D00040464946FFF73EF9D0B9404649466C4BF9
:1090E0000022FEF7C5FE8046894609F10043CDF80F
:1090F00050801593DDE91423CDE908239DE7BAF1EB
:10910000010F02D1002F3FF483AD624B00228EE7A6
:10911000DFF87C914FF00008E7E75D4B4046494699
:109120000022FEF7A5FE0B9B8046894633B901F16C
:1091300000430E900F93DDE90E23DDE7CDE90E89A4
:10914000F9E703F1547B049B002BA8D12BF00043DB
:109150000D9A1B0D1B059A42A1D14046494601F0CC
:109160006FF9FEF757FE02460B4640464946FEF7AA
:10917000C7FC0B9ACBF3130343EA0A03134380465D
:10918000894655D036A3D3E90023FFF7E3F800283A
:109190007FF4D0AC34A3D3E9002340464946FFF71F
:1091A000F7F800283FF47BAFC4E4049B33B30D9B76
:1091B000B3F1D46F22D82EA3D3E900234046494609
:1091C000FFF7D2F8A0B149464046FFF7EBF8012877
:1091D00038BF0120FEF7D2FD0B9B8046894623BB9A
:1091E00001F1004310901193DDE91023CDE908232C
:1091F000099B0D9A03F1D6639B1A0993DDE90801D7
:10920000B0EE480AF0EE680ACDE9080100F0ACFFC4
:10921000DDE9080153EC102BFEF72AFE53EC182B66
:10922000FEF770FC82468B468DE7CDE91089DBE7BF
:1092300011A3D3E90023FFF78DF8B2E700230A93C7
:10924000139A179B1360FFF76BBA652A3FF45FAB65
:10925000452A3FF45CAB0123FFF794BBAFF30080DA
:109260009535A094FFFFDF3F35E5AF350000E03FC7
:109270000000C0FFFFFFDF419535A094FFFFCF3F07
:109280000000F03F0000F07F0000E07FFFFF9F7CC8
:109290000000E03F0000F0BFFFFFEF7F0A460146FD
:1092A0000248034B0068FFF7F3B900BF00E3032057
:1092B0006CE303202DE9F843DFF8B8800646D8F8C0
:1092C00000001F460D46914600F0C6FB254B1C686A
:1092D00034B9254C1C60254B13B11B68C4F8883089
:1092E00063681F2B07DDD8F8000000F0B7FB4FF0D4
:1092F000FF30BDE8F8834EB3D4F8880088B91C4B22
:1093000023B9D8F8000000F0A8FBF0E74FF4847010
:10931000FDF7D2F80028F4D00023C0E94033C4F8A8
:109320008800636840F8239001229A4000EB830193
:10933000D0F800311343C0F80031022EC1F880701C
:1093400002BFD0F804311343C0F804316368D8F881
:1093500000005A1C0233626044F8235000F07EFB88
:109360000020C6E7E8E703205CE7032000000000D8
:10937000B9640B0064E303200369B3EB611F2DE9BB
:10938000F0434FEA611200F1140445DD11F01F01B2
:1093900004EB830604EB82050CD100F1100729468B
:1093A000B14234D39B1A9B00EA1E964238BF002379
:1093B000234415E054F82270C1F12008CF4005F194
:1093C000040EA1467645F44615D89A1A9200043A3E
:1093D0000135AE4238BF0022A318A75007B10433AD
:1093E0001A1BA3424FEAA20208BF0023026108BF72
:1093F0004361BDE8F083DCF800C00CFA08FC4CEADD
:10940000070749F8047B5EF8047BCF40DAE751F8A0
:1094100004CB47F804CFC3E72346E1E7A0F13003CC
:10942000092B02D82038C0B27047A0F16103052B88
:1094300001D84738F7E7A0F14103052B01D82738B9
:10944000F1E70020704700002DE9F04F2DED028B71
:1094500089B008EE100A0493B44B1B6801931846B8
:109460008B469046FFF7A6F8019BDBF800200344EB
:10947000824613F8013C0593931CC2F1FF2202F5CA
:109480007F02FE32D1181F4613F8010B00913028DD
:10949000F8D0FFF7C3FF044600283AD1019952469D
:1094A0003846FFF7B1F80546002868D117F80A00DA
:1094B00007EB0A06FFF7B2FF002862D033461878A0
:1094C00030281F4603F10103F9D0FFF7A7FF01235E
:1094D000B0FA80F46409354600933A4616460132E4
:1094E0003078FFF79BFF0028F8D1019952463046AB
:1094F000FFF78AF880B94DB906EB0A052A461646E9
:1095000001323078FFF78AFF0028F8D1AD1BAD009B
:1095100004E000242546E0E7002DF7D1337803F07E
:10952000DF03502B3BD173782B2B2CD02D2B2ED03F
:10953000711C4FF000090878FFF770FF431EDBB283
:10954000182B2CD8A0F1100211F8010FFFF766FFBD
:10955000431EDBB2182B1DD9B9F1000F00D05242C7
:109560001544CBF80010E4B1009B002B14BF00277A
:109570000627384609B0BDEC028BBDE8F08F3E46A9
:1095800025460124CAE74FF00009B11CD3E74FF08C
:109590000109FAE70A2303FB0202103AD4E7314635
:1095A000DFE7F31B013B2146072B0BDC18EE100A0B
:1095B00000F068FA044640B95D4B0246DE215D4882
:1095C000FCF7A2FF01315B10EEE700F114094FF048
:1095D000000BCAF10103CDF80890CDF800B0069356
:1095E000B74240D30298009B40F8043BA0EB09002F
:1095F000801046012061184600F036FB301AD8F87A
:109600000060B04263DD871B3946204600F0DAFE79
:109610008246A8B17B1E591103F01F0259F8211090
:109620004FF0010A0AFA02F20A4209D0534505DD59
:10963000B91E204600F0C6FE002845D14FF0020AB0
:1096400039462046FFF798FE3D44D8F80830AB4233
:109650004CDA18EE100A214600F054FA149A00234E
:109660001360A32785E7731E059A039316F8013C40
:10967000934219D0BBF1200F07D1029B009A43F807
:10968000042B0293002300939B4616F8010CFFF76E
:10969000C5FE009B00F00F0000FA0BF0034300939F
:1096A0000BF1040B039B0DE0039B069A1344BB4292
:1096B000E0D31846019907935246FEF7A5FF079B92
:1096C0000028D7D11E468BE74FF0030AB8E70ADA25
:1096D000371A214618EE100A3A4600F02FFCED1B0F
:1096E000044600F114094FF0000AAEE7D8F8040070
:1096F000A84272DD451BAE4236DCD8F80C30022B96
:109700002AD0032B2CD0012B1CD1AE421AD1012E12
:1097100012D1049AD8F80430136001232361C9F8E8
:109720000030149B62271C6023E700BFC8B30B0006
:1097300031B30B0042B30B00711E204600F042FE15
:109740000028E6D118EE100A214600F0DBF9149A41
:109750000023136050270CE7159B002BF2D1D8E7AC
:10976000159B002BD5D1EDE76F1EBAF1000F31D15B
:1097700027B13946204600F025FE82467B110121A3
:1097800059F8233007F01F0701FA07F71F4229464F
:10979000204618BF4AF0020A761BFFF7EDFDD8F805
:1097A00004500227BAF1000F48D0D8F80C30022B31
:1097B00015D0032B17D0012B09D11AF0020F06D0B8
:1097C000D9F800004AEA000A1AF0010F0ED147F05A
:1097D000100733E04FF0010AD0E70127E2E7159BBD
:1097E000C3F101031593159B002BF0D0D4F810B0F2
:1097F00004F114034FEA8B0A03EB8B014FF0000CCA
:10980000184653F8042BB2F1FF3F1CD0013202601E
:10981000022F04F114033FD1D8F80020013AB242DC
:109820000AD17111012253F8213006F01F0602FA05
:1098300006F61E4218BF174647F02007149B1C600F
:10984000049B1D6095E6994243F804CCD8D8A368E0
:109850009B4519DB616818EE100A013100F012F91E
:10986000814618B91A4B02468421A8E622690232C1
:1098700004F10C0192000C30FEF72BFE214618EE8D
:10988000100A00F03FF94C4623695A1C04EB83038D
:10989000226101225A61BBE722695A450BDD012191
:1098A0002046FFF769FDD8F808300135AB42FFF6D6
:1098B000D0AE0127C0E716F01F06FAD05344C6F118
:1098C000200653F8040C00F0CFF9B042E7DBF0E7D4
:1098D00031B30B00C2F10802920070B5C2F120064C
:1098E0004368046803FA06F52C43D340046040F84B
:1098F000043F8842F4D370BD30B50368013311F8DA
:10990000014B14B90360012030BD13F8012BA2F103
:109910004105192D98BF2032A242F0D00020F3E774
:109920002DE9F04F0B685E1102EB860613F01F0362
:1099300087B018BF04360025371F90460268019390
:10994000824646F8045CB9463C460295AB465178DF
:10995000531C039341B3084605920491FFF75EFD43
:1099600000284FD10499059A202918D8029B9B45BD
:1099700013DD4C4506D2072D04DC2A464946204615
:10998000FFF7A8FF444550D90023A4F1040944F887
:10999000043CCDF808B04C461D46039AD7E7292968
:1099A00056D10232CAF80020BBF1000F50D04C450E
:1099B00006D2072D04DC2A4649462046FFF78AFFD7
:1099C000444534D9A8F10402234653F8041B42F855
:1099D000041F9F42F9D23B1B23F0030304330134DD
:1099E000033EB44288BF04234344002243F8042BBF
:1099F0009F42FBD23B681BB9474527D101233B60FF
:109A0000052026E00135082D0BF1010B06DD44454C
:109A1000C3D9002344F8043C0125043C226800F02B
:109A20000F0040EA02122260B7E70825B5E7019B64
:109A3000002BDFD04FF0FF32C3F1200322FA03F3F3
:109A400056F8042C1A4046F8042CD3E7043FD1E71B
:109A5000042007B0BDE8F08F70477047704782B0B0
:109A600001B901A942B14BB113780B601278101EF5
:109A700018BF012002B070471046FBE76FF00100ED
:109A8000F8E7000070B5466A04460D4676B9102026
:109A9000FCF712FD0246606220B9184B1848662197
:109AA000FCF732FDC0E901660660C660666AF368CD
:109AB00083B1636ADB6853F82500B8B9012101FA64
:109AC00005F6721D9200204600F09DFC60B1C0E9D1
:109AD00001560EE021220421204600F094FC636A26
