:02000002B0004C
:1040000000400B008C550B00000006000C00050260
:084010000401A60F00000000EE
:0440180084520B00C3
:10401C0009480A49884208B505D0094A824202D0AB
:10402C00121A01F077F80748074A0021121A01F01A
:10403C007FF8014808BD00BF20E60320F8540B00B0
:10404C008CE603208CE60320EDE7032070B5074EC9
:10405C00074C00F0A7FCA41BA4080025AC4200D11F
:10406C0070BD56F8043B98470135F7E7A0540B0098
:10407C00C4540B0000F014B808B500F035F8BDE8D6
:10408C00084000F047BC00F03BBB00F041BB00789F
:10409C00B0FA80F0400970470123037070470000AC
:1040AC0008B50F210F4800F06DF801F007F800F08B
:1040BC003FFE01F003F8682100F044FE00F0FEFF23
:1040CC0003686B219B68984700F0F8FF0368002198
:1040DC009B68984700F0F2FFBDE80840012100F012
:1040EC0034BE00BF8CE6032010B50A4C4FF480514F
:1040FC00204600F019F94FF4FA7000F0DFFB20466F
:10410C00054900F011F9BDE810404FF4FA7000F0C9
:10411C00D5BB00BF8CE6032000F8FFFF07B50623D4
:10412C000522CDE900324FF4006107230822034831
:10413C0000F006F803B05DF804FB00BF8CE603202A
:10414C0038B5C0E90523049BC3610446059B036293
:10415C000025056105608562816090B2012100F047
:10416C0027FF208B012100F023FFA08B012100F001
:10417C001FFF208C012100F01BFF04236562E3600C
:10418C00204638BD8268034B93FBF2F393FBF1F1AD
:10419C00416070470087930338B5C368022B04460F
:1041AC000D460DD103290BD8DFE801F00213151BC6
:1041BC000021A08A00F00DFF0121208B00F009FFE7
:1041CC00E368042B1FD1032D1DD8DFE805F00C2A62
:1041DC00303E0121EDE70121A08A00F0FAFE00211A
:1041EC00EBE70021F8E70121A08A00F0F2FE0021A4
:1041FC00208B00F0EEFE0121A08B00F0EAFE0021E6
:10420C00208C00F0E6FEE368052B40F08C80092D35
:10421C0000F28980DFE805F01F2937495F6167717B
:10422C007F850021A08A00F0D4FE0121E0E7002167
:10423C00A08A00F0CEFE0121208B00F0CAFE0021E6
:10424C00A08B00F0C6FE0121DAE70121A08A00F064
:10425C00C0FE0021F0E70021A08A00F0BAFE012187
:10426C00208B00F0B6FE012108E0A08A002100F0AE
:10427C00B0FE0121208B00F0ACFE0021A08B00F0E1
:10428C00A8FE00210CE0A08A002100F0A2FE208BE9
:10429C00012100F09EFE0021A08B00F09AFE01216E
:1042AC00208C00F096FE012110E00021A08A00F085
:1042BC0090FE0121208B00F08CFE0021A08B00F0E1
:1042CC0088FE0121208C00F084FE0021A08CBDE82A
:1042DC00384000F07EBE0121E8E70121A08A00F001
:1042EC0078FE0021E6E7A08A012100F072FE002191
:1042FC00208B00F06EFE0121E0E7A08A012100F086
:10430C0068FE208B002100F064FE0121A08B00F0E0
:10431C0060FE0021D6E70121A08A00F05AFE0021A0
:10432C009EE70021F8E738BDF8B5002981EAE17570
:10433C000446A5EBE17524DD0123236000270A2642
:10434C0085B300F061F8A36A6268C31A9342F7D38D
:10435C0022682369A062012A16D1A2680133934214
:10436C0008BF3B462361D4E90331052B05F1FF352A
:10437C0010D191FBF6F306FB13112046FFF70CFF4F
:10438C00DEE7DBD00023D8E70BB9A36823612369F0
:10439C00013BE7E74B4203F0030301F0030158BF75
:1043AC005942EAE7F8BD000008B5024B1B689B6850
:1043BC00019308BD6802030008B5024B1B68DB685B
:1043CC00019308BD6802030008B5024B1B689B688B
:1043DC00019308BD2C02030008B5024B1B68DB6877
:1043EC00019308BD2C02030008B5024B1B681B6926
:1043FC00019308BD2C02030008B5024B1B685B68D7
:10440C00019308BD1802030008B5024B1B681B6919
:10441C00019308BD1802030008B5024B1B685B69C9
:10442C00019308BD1802030008B5024B1B685B6CB6
:10443C00019308BD4802030008B5024B1B685B6979
:10444C00019308BD6402030008B5024B1B68DB68CE
:10445C00019308BD3C02030008B5024B1B681B69A5
:10446C00019308BD3C02030008B5024B1B685B6955
:10447C00019308BD3C02030008B5024B1B689B6905
:10448C00019308BD3C02030008B5024B1B68DB69B5
:10449C00019308BD3C02030008B5024B1B681B6A64
:1044AC00019308BD3C02030008B5024B1B689B6AD4
:1044BC00019308BD3C02030008B5024B1B681B6C42
:1044CC00019308BD3C02030008B5024B1B68DB6876
:1044DC00019308BD2802030008B5024B1B689B69B9
:1044EC00019308BD2802030008B5024B1B68DB6969
:1044FC00019308BD2802030008B5024B1B681B6A18
:10450C00019308BD2802030008B5024B1B685B6AC7
:10451C00019308BD2802030008B5024B1B689B6A77
:10452C00019308BD2802030008B5024B1B68DB6A27
:10453C00019308BD2802030008B5024B1B681B6BD6
:10454C00019308BD2802030008B5024B1B685B6B86
:10455C00019308BD2802030008B5024B1B681B6CB5
:10456C00019308BD2802030008B5024B1B68DB69E8
:10457C00019308BD3002030008B5024B1B681B6A8F
:10458C00019308BD3002030008B5024B1B681B6881
:10459C00019308BD4C02030008B5024B1B681B6954
:1045AC00019308BD4C02030008B5024B1B685B6904
:1045BC00019308BD4C02030008B5024B1B689B69B4
:1045CC00019308BD4C02030008B5024B1B68DB6964
:1045DC00019308BD4C02030008B5024B1B681B6A13
:1045EC00019308BD4C02030008B5024B1B685B68C5
:1045FC00019308BD2002030008B5024B1B685B69E0
:10460C00019308BD2002030008B5034B1B68D3F8C7
:10461C008830019308BD00002002030008B5034B4D
:10462C001B68D3F89430019308BD000020020300EE
:10463C0008B5024B1B685B68019308BD4002030080
:10464C0008B5024B1B689B68019308BD4002030030
:10465C0008B5024B1B68DB68019308BD40020300E0
:10466C0008B5024B1B681B69019308BD400203008F
:10467C0008B5024B1B685B69019308BD400203003F
:10468C0008B5024B1B689B69019308BD40020300EF
:10469C0008B5024B1B68DB69019308BD400203009F
:1046AC0008B5024B1B681B6A019308BD400203004E
:1046BC0008B5024B1B681B6B019308BD400203003D
:1046CC0008B5024B1B685B6B019308BD40020300ED
:1046DC0008B5024B1B681B6C019308BD400203001C
:1046EC0008B5024B1B685B6C019308BD40020300CC
:1046FC0008B5024B1B68DB6B019308BD4402030039
:10470C0008B5024B1B681B68019308BD1C02030013
:10471C0008B5024B1B685B68019308BD1C020300C3
:10472C0008B5024B1B681B6C019308BD1C020300EF
:10473C0008B5024B1B685B6C019308BD1C0203009F
:10474C00002240681146FFF7ABBF002240681146BB
:10475C00FFF7B6BF40680022FFF7AABF40680022EF
:10476C0081F00101FFF794BF002340681A461946F7
:10477C00FFF786BF002340681A461946FFF778BF3B
:10478C00002240681146FFF76BBF002240681146BB
:10479C00FFF756BF406800220221FFF759BF0023E4
:1047AC0040681A46FFF744BF024B03225A60024A84
:1047BC001A607047B8E60320A0520B0010B50446EF
:1047CC0008462170FFF7D0FE00236360204610BD21
:1047DC00054B02221A60054B054A9A600020C3E97A
:1047EC000000FFF701BF00BFCCE60320C0E60320AA
:1047FC000000FFFF024800230360FFF715BE00BF57
:10480C00D0E60320F8B506460D468F180024BD42AD
:10481C000CD0336815F8011B9B6830469847031E73
:10482C0001DB1C44F3E7002C08BF1C462046F8BDF6
:10483C0013B50446084659B1019100F0AFFC23684A
:10484C000199DB680246204602B0BDE810401847CB
:10485C0002B010BD03689B68184730B58BB00023BD
:10486C00012A8DF8243098BF0A2209AC0D46B1FB01
:10487C00F2F101FB125303F0FF03092B94BF303309
:10488C003733DBB2AA4204F8013DEFD92146FFF7DA
:10489C00CFFF0BB030BD0000014B024A1A607047CD
:1048AC00D4E60320D4520B00024B1A68024B1A6058
:1048BC00704700BF20E60320D8E603200021FFF755
:1048CC009BBE0000014B00229A607047DCE603207F
:1048DC00014B1860704700BF24E6032008B50B4B52
:1048EC0043B100F063F903681B699847002801DDA8
:1048FC00AFF30080064B43B100F0A0FB03681B69CB
:10490C009847002801DDAFF3008008BD00000000CF
:10491C000000000008B5FFF7E1FFFFF77DFD014B3C
:10492C00186008BD40E703200548064A064908B54B
:10493C00121A00F0EFFB054B054A1A6008BD00BFC8
:10494C0000F4032004F40320F4540B0000F40320BF
:10495C001E1C279A07B5002300931A466FF07701A7
:10496C00FFF75CFE03B05DF804FB000007B543885D
:10497C000A2B08D0502B0BD1094B1B684BB103B041
:10498C005DF804EB1847FFF7E5FF03B05DF804FB97
:10499C00002300931A466FF07701FFF73FFEF4E710
:1049AC00F0E6032010B512480021FFF7C1FE114BB1
:1049BC001A68114B9A42114B0CBF012200221A703B
:1049CC0001D0FFF7B1FFFFF717FD044600F0B8FB6D
:1049DC000B4B13B12046AFF3008000210848FFF7C2
:1049EC0087FEBDE8104007480021FFF70DBE00BF51
:1049FC00DD480B0000F403201E1C279AECE6032074
:104A0C000000000079490B00704710B518210446CE
:104A1C00FFF73BFB204610BDF0B5037D062B8DB098
:104A2C000E4600F104074FF0000412D000F1080507
:104A3C0015F8011D0A223046FFF70FFFAF42044460
:104A4C0019D0002CF4D02E213046FFF703FF04447C
:104A5C00EEE72F236A4639460A208DF80040FFF70F
:104A6C00EBFC684600F09AFB33680246DB6869464B
:104A7C0030469847044620460DB0F0BD10B5054BA6
:104A8C000446112240F8043B002100F051FB204663
:104A9C0010BD00BFFC520B000346074A10B543F88B
:104AAC00042B01F1100251F8044B43F8044B9142D2
:104ABC00F9D10A781A7010BDFC520B0010B59DF894
:104ACC00084044EA032343EA024242EA0161042318
:104ADC004160037510BD000007B5064B0360CB7831
:104AEC0000938B784A780978FFF7E8FF03B05DF8FC
:104AFC0004FB00BFFC520B004174704770477047B9
:104B0C0008B50021007CFFF757FD40EAE07008BDB6
:104B1C0008B50121007CFFF74FFD40EAE07008BDAD
:104B2C0008B5007CFFF740FD20EAE07008BD08B531
:104B3C00007CFFF731FD20EAE07008BD13B5044698
:104B4C00007C0191FFF730FD0028019901DC607CAD
:104B5C0020B1207CFFF738FD20EAE07002B010BDD8
:104B6C00007CFFF739BD10B514210446FFF78DFA10
:104B7C00204610BD10B54FF47A7304460846002148
:104B8C00C4E90113044B23600123207463741146A0
:104B9C00FFF7FAFC204610BD10530B0010B5142281
:104BAC000446002100F0C4FA204610BD10B50F4C8D
:104BBC0088B003A8FFF7F2FF2178BFF35B8F11F0E9
:104BCC0001010FD120460191FFF761FA019948B11B
:104BDC0003AA0748FFF7CEFF2046FFF75DFA05480A
:104BEC0000F092FA024808B010BD00BFF4E60320B2
:104BFC00F8E60320094B0B0070474174704708B569
:104C0C00007CFFF751FC20EAE07008BD08B5007C81
:104C1C00FFF722FC20EAE07008BD08B5007CFFF726
:104C2C002BFC40EAE07008BD08B5007CFFF71CFCCB
:104C3C0040EAE07008BD007CFFF726BC37B5457C28
:104C4C0004462DB1207C03B0BDE83040FFF7FCBB1F
:104C5C00007C0191FFF728FC00280199F2DC284622
:104C6C0003B030BD10B514210446FFF70EFA2046F0
:104C7C0010BD000010B54FF47A7304460846114677
:104C8C000022C4E90123044B2360012320746374C4
:104C9C00FFF712FC204610BD40530B007047F8B5CF
:104CAC00064615460C468F18BC4206D0336814F8DD
:104CBC00011B9B6830469847F6E72846F8BD007CF8
:104CCC000022FFF719BC007C0021FFF71DBC007C03
:104CDC000021FFF721BC007C0021FFF725BC007CE4
:104CEC000021FFF729BC10B514210446FFF7CDF9BC
:104CFC00204610BD38B5044615464FF47A73002291
:104D0C00C4E90123094B2174084623602946FFF7A7
:104D1C0023FCBF3008D16B69DB0705D56868FFF74A
:104D2C00F7FCE868FFF7F4FC204638BD70530B0025
:104D3C000023007C1A461946FFF7C6BB007C0022F4
:104D4C00FFF7CABBC9B2FFF7F9BF007C0022FFF71F
:104D5C00CBBB002240681146FFF782BC00224068A2
:104D6C001146FFF79DBC002240681146FFF7A8BC16
:104D7C0040680022FFF79CBC4068002281F00101D2
:104D8C00FFF786BC002340681A461946FFF778BC2B
:104D9C00002340681A461946FFF76ABC0022406897
:104DAC001146FFF74DBC406800220221FFF750BCB2
:104DBC00002340681A46FFF73BBC0000024B04225C
:104DCC005A60024A1A6070470CE7032098530B0094
:104DDC00002340681A46FFF72BBC406800220221D2
:104DEC00FFF736BC002240681146FFF729BC0022B1
:104DFC0040681146FFF734BC002340681A46194638
:104E0C00FFF736BC002340681A461946FFF738BC3A
:104E1C0040680021FFF75CBC40680021FFF760BCD4
:104E2C004068002281F00101FFF732BC406800228B
:104E3C00FFF73EBC002240681146FFF741BC002240
:104E4C0040681146FFF72CBC2DE9F04395B0144691
:104E5C000D460746FFF712FE00211C220DA80091FB
:104E6C0000F066F940230C9320466B460CAA0021F7
:104E7C00FFF7A2FA044600284BD1024601216868CC
:104E8C00FFF7EEFB0221804622466868FFF7E8FB3D
:104E9C00009E81462146002E3BD0002939D17368F3
:104EAC00022B03D00A2B11D0F669F4E7B8F1000FEE
:104EBC00FAD0716906A8043107ADFFF70DFE0FCDCE
:104ECC003C1D0FC42B6823704146EDE7B9F1000F70
:104EDC00EAD07469102201A800F02AF906238DF893
:104EEC00143001AD04F108031834186859682A46C7
:104EFC0003C20833A3421546F7D101A906A807AD92
:104F0C00FFF7CAFD0FCD3C1D0FC42B68237049461B
:104F1C00CAE70098FFF748FA384615B0BDE8F083A9
:104F2C00024B034A1A6000225A60704714E70320B0
:104F3C00D4530B00232813B502D9002002B010BDA6
:104F4C00A0F10B03022B1AD8174C2178BFF35B8FFF
:104F5C0011F001010BD120460191FFF798F801994E
:104F6C0028B11248FFF72AFC2046FFF795F80F4BA3
:104F7C001878FFF701FB0028DFD10120DEE70128BC
:104F8C0009D800F09BF80021007CFFF7DDFA80F0D7
:104F9C000100C0B2D2E709380128EED800F04EF873
:104FAC00007CFFF779FAF2E71CE7032020E70320E7
:104FBC00232838B504460D460AD8FF2908D0FFF738
:104FCC00B9FF28B129462046BDE83840FFF7FCB9A7
:104FDC0038BD38B504460D46FFF7FEF9FF2810D052
:104FEC00062804D84D2323FA00F0C30709D4204621
:104FFC00FFF7A0FF28B129462046BDE83840FFF74F
:10500C00F3B938BD7047000038B5044614252A465C
:10501C00002100F08DF82580402507492581284680
:10502C00258200F06FF804496060284600F06AF8A9
:10503C00E060204638BD00BF08540B0030B50E4D63
:10504C002978BFF35B8F11F0010487B011D128468A
:10505C00FFF71DF868B101A8FFF7D6FF01AA21469A
:10506C000648FFF707FE2846FFF716F8044800F03D
:10507C004BF8024807B030BD28E703202CE703208B
:10508C0011500B007047000038B50A4B0360012328
:10509C00044643610849202000F034F82025606064
:1050AC000549A560284600F02DF8C4E90305204603
:1050BC0038BD00BF1800010008540B0030B50E4D70
:1050CC002978BFF35B8F11F0010487B011D128460A
:1050DC00FEF7DDFF68B16846FFF7D6FF6A4621464A
:1050EC000648FFF707FE2846FEF7D6FF044800F0F7
:1050FC000BF8024807B030BD44E7032048E7032013
:10510C0091500B00FEF7BFBF002301461A4618460C
:10511C0000F04CB80A44914200F1FF3300D17047C3
:10512C0010B511F8014B03F8014F9142F9D110BDA4
:10513C0002440346934200D1704703F8011BF9E780
:10514C0038B5104B1D68AB6B0446B3B91820FFF78C
:10515C00D7FA0246A86320B90B4B0C484221FFF743
:10516C00DFFA0B490B4BC0E900130B4B83600B238D
:10517C00838100210120C2E90401AB6B00221C6178
:10518C005A6138BD24E6032009540B0020540B004F
:10519C000E33CDAB34126DE6ECDE0500034613F88E
:1051AC00012B002AFBD1181A013870472DE9F8435E
:1051BC00DFF8B8800646D8F800001F460D46914629
:1051CC0000F056F8254B1C6834B9254C1C60254B57
:1051DC0013B11B68C4F8883063681F2B07DDD8F83F
:1051EC00000000F047F84FF0FF30BDE8F8834EB3F5
:1051FC00D4F8880088B91C4B23B9D8F8000000F00B
:10520C0038F8F0E74FF48470FFF77AFA0028F4D0FE
:10521C000023C0E94033C4F88800636840F8239049
:10522C0001229A4000EB8301D0F800311343C0F8FF
:10523C000031022EC1F8807002BFD0F80431134344
:10524C00C0F804316368D8F800005A1C023362605D
:10525C0044F8235000F00EF80020C6E7E8E70320DE
:10526C005CE70320000000000D470B0088E60320DC
:10527C0070477047704700001D400B0059400B00F1
:10528C0081400B0085400B00000000000000000076
:10529C0000000000AB470B00A1470B0097470B0029
:1052AC008D470B0081470B0075470B001D4E0B0003
:1052BC00254E0B0069470B0061470B0057470B004D
:1052CC004D470B00554E0B006170700025592D2574
:1052DC006D2D25645425483A254D3A2553257A00E1
:1052EC0061736374696D65000000000000000000CC
:1052FC00254A0B00154A0B00174A0B000000000052
:10530C00000000000B4B0B00734B0B00494B0B00C8
:10531C0011480B003B4B0B000D4B0B001D4B0B00B6
:10532C006D4B0B002D4B0B00054B0B0000000000D0
:10533C0000000000054C0B00714C0B00494C0B009D
:10534C0011480B00194C0B00354C0B00274C0B0073
:10535C00434C0B00074C0B000B4C0B0000000000E7
:10536C0000000000A94C0B00F34C0B00CB4C0B00C5
:10537C00AB4C0B00D34C0B00DB4C0B00E34C0B0089
:10538C00EB4C0B000000000000000000BD4D0B00BA
:10539C00B34D0B00A94D0B005F4D0B009D4D0B0049
:1053AC00914D0B001D4E0B00254E0B00854D0B0037
:1053BC007D4D0B00734D0B00694D0B00554E0B00D2
:1053CC000000000000000000DD4D0B00E74D0B005D
:1053DC00F14D0B00FB4D0B00054E0B00114E0B005D
:1053EC001D4E0B00254E0B002D4E0B00394E0B00A5
:1053FC00414E0B004B4E0B00554E0B0000524545D9
:10540C004E54206D616C6C6F6320737563636565BE
:10541C00646564002F6D6E742F776F726B7370619F
:10542C0063652F776F726B73706163652F474343AE
:10543C002D31302D706970656C696E652F6A656EE3
:10544C006B696E732D4743432D31302D7069706538
:10545C006C696E652D34385F323032303131323414
:10546C005F313630363138303634312F7372632F2A
:10547C006E65776C69622F6E65776C69622F6C69EB
:10548C0062632F7374646C69622F72616E642E6335
:10549C000000000029410B00B5470B00DD470B0055
:1054AC0001480B00A5480B00B5480B00D1480B0078
:1054BC00C94D0B002D4F0B00000000000000000038
:0454CC0000000000DC
:1054D000040000001400000003000000474E5500C7
:1054E00001ECFA715D1221051168E89CC589E0CDD7
:0454F00085AAFEFA91
:0454F40000000000B4
:1054F800EC520B0028E6032000000000000000002A
:105508000000000000000000000000000000000093
:105518000000000000000000000000000000000083
:105528000000000000000000000000000000000073
:105538000000000000000000000000000000000063
:105548000000000000000000000000000000000053
:0C5558000000000000000000ECE7032051
:10556400FFFFFFFF00000102030405060708090A04
:105574000B0C0D0E0F101112131415161718191AFF
:085584001B1C1D1E1F20280046
:04558C007856341207
:04000003B000401CED
:00000001FF
